{
  "contractName": "StakingRewards",
  "abi": [
    {
      "inputs": [
        {
          "internalType": "address",
          "name": "_rewardsDistribution",
          "type": "address"
        },
        {
          "internalType": "address",
          "name": "_rewardsToken",
          "type": "address"
        },
        {
          "internalType": "address",
          "name": "_stakingToken",
          "type": "address"
        }
      ],
      "stateMutability": "nonpayable",
      "type": "constructor"
    },
    {
      "anonymous": false,
      "inputs": [
        {
          "indexed": false,
          "internalType": "address",
          "name": "account",
          "type": "address"
        }
      ],
      "name": "Paused",
      "type": "event"
    },
    {
      "anonymous": false,
      "inputs": [
        {
          "indexed": true,
          "internalType": "address",
          "name": "_tokenAddress",
          "type": "address"
        },
        {
          "indexed": true,
          "internalType": "address",
          "name": "_to",
          "type": "address"
        },
        {
          "indexed": false,
          "internalType": "uint256",
          "name": "_amount",
          "type": "uint256"
        }
      ],
      "name": "Recovered",
      "type": "event"
    },
    {
      "anonymous": false,
      "inputs": [
        {
          "indexed": false,
          "internalType": "uint256",
          "name": "_reward",
          "type": "uint256"
        },
        {
          "indexed": false,
          "internalType": "uint256",
          "name": "_periodFinish",
          "type": "uint256"
        }
      ],
      "name": "RewardAdded",
      "type": "event"
    },
    {
      "anonymous": false,
      "inputs": [
        {
          "indexed": true,
          "internalType": "address",
          "name": "_user",
          "type": "address"
        },
        {
          "indexed": false,
          "internalType": "uint256",
          "name": "_reward",
          "type": "uint256"
        }
      ],
      "name": "RewardPaid",
      "type": "event"
    },
    {
      "anonymous": false,
      "inputs": [
        {
          "indexed": true,
          "internalType": "address",
          "name": "_user",
          "type": "address"
        },
        {
          "indexed": false,
          "internalType": "uint256",
          "name": "_amount",
          "type": "uint256"
        }
      ],
      "name": "Staked",
      "type": "event"
    },
    {
      "anonymous": false,
      "inputs": [
        {
          "indexed": false,
          "internalType": "address",
          "name": "account",
          "type": "address"
        }
      ],
      "name": "Unpaused",
      "type": "event"
    },
    {
      "anonymous": false,
      "inputs": [
        {
          "indexed": true,
          "internalType": "address",
          "name": "_user",
          "type": "address"
        },
        {
          "indexed": false,
          "internalType": "uint256",
          "name": "_amount",
          "type": "uint256"
        }
      ],
      "name": "Withdrawn",
      "type": "event"
    },
    {
      "anonymous": false,
      "inputs": [
        {
          "indexed": false,
          "internalType": "uint256",
          "name": "_duration",
          "type": "uint256"
        }
      ],
      "name": "rewardsDurationUpdated",
      "type": "event"
    },
    {
      "inputs": [],
      "name": "lastUpdateTime",
      "outputs": [
        {
          "internalType": "uint256",
          "name": "",
          "type": "uint256"
        }
      ],
      "stateMutability": "view",
      "type": "function"
    },
    {
      "inputs": [],
      "name": "lockingPeriod",
      "outputs": [
        {
          "internalType": "uint256",
          "name": "",
          "type": "uint256"
        }
      ],
      "stateMutability": "view",
      "type": "function"
    },
    {
      "inputs": [],
      "name": "paused",
      "outputs": [
        {
          "internalType": "bool",
          "name": "",
          "type": "bool"
        }
      ],
      "stateMutability": "view",
      "type": "function"
    },
    {
      "inputs": [],
      "name": "periodFinish",
      "outputs": [
        {
          "internalType": "uint256",
          "name": "",
          "type": "uint256"
        }
      ],
      "stateMutability": "view",
      "type": "function"
    },
    {
      "inputs": [],
      "name": "rewardPerTokenStored",
      "outputs": [
        {
          "internalType": "uint256",
          "name": "",
          "type": "uint256"
        }
      ],
      "stateMutability": "view",
      "type": "function"
    },
    {
      "inputs": [],
      "name": "rewardRate",
      "outputs": [
        {
          "internalType": "uint256",
          "name": "",
          "type": "uint256"
        }
      ],
      "stateMutability": "view",
      "type": "function"
    },
    {
      "inputs": [
        {
          "internalType": "address",
          "name": "",
          "type": "address"
        }
      ],
      "name": "rewards",
      "outputs": [
        {
          "internalType": "uint256",
          "name": "",
          "type": "uint256"
        }
      ],
      "stateMutability": "view",
      "type": "function"
    },
    {
      "inputs": [],
      "name": "rewardsDistribution",
      "outputs": [
        {
          "internalType": "address",
          "name": "",
          "type": "address"
        }
      ],
      "stateMutability": "view",
      "type": "function"
    },
    {
      "inputs": [],
      "name": "rewardsDuration",
      "outputs": [
        {
          "internalType": "uint256",
          "name": "",
          "type": "uint256"
        }
      ],
      "stateMutability": "view",
      "type": "function"
    },
    {
      "inputs": [],
      "name": "rewardsToken",
      "outputs": [
        {
          "internalType": "contract IERC20",
          "name": "",
          "type": "address"
        }
      ],
      "stateMutability": "view",
      "type": "function"
    },
    {
      "inputs": [
        {
          "internalType": "address",
          "name": "_rewardsDistribution",
          "type": "address"
        }
      ],
      "name": "setRewardsDistribution",
      "outputs": [],
      "stateMutability": "nonpayable",
      "type": "function"
    },
    {
      "inputs": [],
      "name": "stakingToken",
      "outputs": [
        {
          "internalType": "contract IERC20",
          "name": "",
          "type": "address"
        }
      ],
      "stateMutability": "view",
      "type": "function"
    },
    {
      "inputs": [
        {
          "internalType": "address",
          "name": "",
          "type": "address"
        }
      ],
      "name": "userRewardPerTokenPaid",
      "outputs": [
        {
          "internalType": "uint256",
          "name": "",
          "type": "uint256"
        }
      ],
      "stateMutability": "view",
      "type": "function"
    },
    {
      "inputs": [
        {
          "internalType": "address",
          "name": "_account",
          "type": "address"
        }
      ],
      "name": "balanceOf",
      "outputs": [
        {
          "internalType": "uint256",
          "name": "",
          "type": "uint256"
        }
      ],
      "stateMutability": "view",
      "type": "function"
    },
    {
      "inputs": [
        {
          "internalType": "address",
          "name": "_account",
          "type": "address"
        }
      ],
      "name": "earned",
      "outputs": [
        {
          "internalType": "uint256",
          "name": "",
          "type": "uint256"
        }
      ],
      "stateMutability": "view",
      "type": "function"
    },
    {
      "inputs": [],
      "name": "getRewardForDuration",
      "outputs": [
        {
          "internalType": "uint256",
          "name": "",
          "type": "uint256"
        }
      ],
      "stateMutability": "view",
      "type": "function"
    },
    {
      "inputs": [],
      "name": "getTotalSupply",
      "outputs": [
        {
          "internalType": "uint256",
          "name": "",
          "type": "uint256"
        }
      ],
      "stateMutability": "view",
      "type": "function"
    },
    {
      "inputs": [],
      "name": "lastTimeRewardApplicable",
      "outputs": [
        {
          "internalType": "uint256",
          "name": "",
          "type": "uint256"
        }
      ],
      "stateMutability": "view",
      "type": "function"
    },
    {
      "inputs": [],
      "name": "rewardPerToken",
      "outputs": [
        {
          "internalType": "uint256",
          "name": "",
          "type": "uint256"
        }
      ],
      "stateMutability": "view",
      "type": "function"
    },
    {
      "inputs": [
        {
          "internalType": "address",
          "name": "_account",
          "type": "address"
        }
      ],
      "name": "viewLockingTimeStamp",
      "outputs": [
        {
          "internalType": "uint256",
          "name": "",
          "type": "uint256"
        }
      ],
      "stateMutability": "view",
      "type": "function"
    },
    {
      "inputs": [
        {
          "internalType": "uint256",
          "name": "_amount",
          "type": "uint256"
        }
      ],
      "name": "stake",
      "outputs": [],
      "stateMutability": "nonpayable",
      "type": "function"
    },
    {
      "inputs": [
        {
          "internalType": "uint256",
          "name": "_amount",
          "type": "uint256"
        },
        {
          "internalType": "address",
          "name": "_account",
          "type": "address"
        }
      ],
      "name": "stakeTransferWithBalance",
      "outputs": [],
      "stateMutability": "nonpayable",
      "type": "function"
    },
    {
      "inputs": [
        {
          "internalType": "uint256",
          "name": "_amount",
          "type": "uint256"
        }
      ],
      "name": "withdraw",
      "outputs": [],
      "stateMutability": "nonpayable",
      "type": "function"
    },
    {
      "inputs": [],
      "name": "getReward",
      "outputs": [],
      "stateMutability": "nonpayable",
      "type": "function"
    },
    {
      "inputs": [],
      "name": "quit",
      "outputs": [],
      "stateMutability": "nonpayable",
      "type": "function"
    },
    {
      "inputs": [
        {
          "internalType": "uint256",
          "name": "_reward",
          "type": "uint256"
        },
        {
          "internalType": "uint256",
          "name": "_duration",
          "type": "uint256"
        }
      ],
      "name": "claimRewardAmount",
      "outputs": [],
      "stateMutability": "nonpayable",
      "type": "function"
    },
    {
      "inputs": [
        {
          "internalType": "uint256",
          "name": "_duration",
          "type": "uint256"
        }
      ],
      "name": "setRewardsDuration",
      "outputs": [],
      "stateMutability": "nonpayable",
      "type": "function"
    },
    {
      "inputs": [],
      "name": "recoverLostNetworkToken",
      "outputs": [],
      "stateMutability": "nonpayable",
      "type": "function"
    },
    {
      "inputs": [
        {
          "internalType": "address",
          "name": "_token",
          "type": "address"
        },
        {
          "internalType": "uint256",
          "name": "_amount",
          "type": "uint256"
        }
      ],
      "name": "recoverLostTokenERC20",
      "outputs": [],
      "stateMutability": "nonpayable",
      "type": "function"
    },
    {
      "inputs": [],
      "name": "pause",
      "outputs": [],
      "stateMutability": "nonpayable",
      "type": "function"
    },
    {
      "inputs": [],
      "name": "unpause",
      "outputs": [],
      "stateMutability": "nonpayable",
      "type": "function"
    }
  ],
  "bytecode": "0x60806040526206978060045562069780600555600060075560006008553480156200002957600080fd5b506040516200196d3803806200196d8339810160408190526200004c91620000b4565b60008054600180556001600160a01b039485166001600160a81b0319909116179055600280549284166001600160a01b031993841617905560038054919093169116179055620000fe565b80516001600160a01b0381168114620000af57600080fd5b919050565b600080600060608486031215620000ca57600080fd5b620000d58462000097565b9250620000e56020850162000097565b9150620000f56040850162000097565b90509250925092565b61185f806200010e6000396000f3fe608060405234801561001057600080fd5b50600436106101e45760003560e01c80638456cb591161010f578063cd3daf9d116100a2578063e5cd8a6f11610071578063e5cd8a6f146103e8578063ebe2b12b146103fb578063fa4ea2be14610404578063fc2b8cc31461040c57600080fd5b8063cd3daf9d146103b1578063d1af0c7d146103b9578063df136d65146103cc578063e3e6cd18146103d557600080fd5b8063bfd837ac116100de578063bfd837ac14610364578063c4e41b221461038d578063c8f33c9114610395578063cc1a378f1461039e57600080fd5b80638456cb59146103165780638b8763471461031e5780638c7283c61461033e578063a694fc3a1461035157600080fd5b80633f4ba83a1161018757806370a082311161015657806370a08231146102c957806372f702f3146102f25780637b0a47ee1461030557806380faa57d1461030e57600080fd5b80633f4ba83a146102705780633fc6df6e14610278578063550066d5146102a35780635c975abb146102ac57600080fd5b80631c1f78eb116101c35780631c1f78eb146102445780632e1a7d4d1461024c578063386a95251461025f5780633d18b9121461026857600080fd5b80628cc262146101e95780630700037d1461020f578063197621431461022f575b600080fd5b6101fc6101f7366004611596565b610414565b6040519081526020015b60405180910390f35b6101fc61021d366004611596565b600b6020526000908152604090205481565b61024261023d366004611596565b610492565b005b6101fc6104e7565b61024261025a3660046115b1565b610505565b6101fc60055481565b6102426106eb565b610242610811565b60005461028b906001600160a01b031681565b6040516001600160a01b039091168152602001610206565b6101fc60045481565b600054600160a01b900460ff166040519015158152602001610206565b6101fc6102d7366004611596565b6001600160a01b03166000908152600d602052604090205490565b60035461028b906001600160a01b031681565b6101fc60085481565b6101fc610845565b610242610853565b6101fc61032c366004611596565b600a6020526000908152604090205481565b61024261034c3660046115ca565b610885565b61024261035f3660046115b1565b610aa6565b6101fc610372366004611596565b6001600160a01b03166000908152600e602052604090205490565b600c546101fc565b6101fc60095481565b6102426103ac3660046115b1565b610c3c565b6101fc610cfe565b60025461028b906001600160a01b031681565b6101fc60065481565b6102426103e33660046115f6565b610d4a565b6102426103f6366004611620565b610dd7565b6101fc60075481565b61024261102f565b6102426110f0565b6001600160a01b0381166000908152600b6020908152604080832054600a90925282205461048c919061048690670de0b6b3a764000090610480906104619061045b610cfe565b9061113b565b6001600160a01b0388166000908152600d60205260409020549061114e565b9061115a565b90611166565b92915050565b6000546001600160a01b031633146104c55760405162461bcd60e51b81526004016104bc90611642565b60405180910390fd5b600080546001600160a01b0319166001600160a01b0392909216919091179055565b600061050060055460085461114e90919063ffffffff16565b905090565b600260015414156105285760405162461bcd60e51b81526004016104bc9061168c565b600260015533610536610cfe565b600655610541610845565b6009556001600160a01b038116156105885761055c81610414565b6001600160a01b0382166000908152600b6020908152604080832093909355600654600a909152919020555b600054600160a01b900460ff16156105b25760405162461bcd60e51b81526004016104bc906116c3565b600082116105f85760405162461bcd60e51b81526020600482015260136024820152724e6f7468696e6720746f20776974686472617760681b60448201526064016104bc565b336000908152600e60205260409020544210156106575760405162461bcd60e51b815260206004820152601b60248201527f54696d65206c6f636b206973207374696c6c20696e20706c616365000000000060448201526064016104bc565b600c54610664908361113b565b600c55336000908152600d6020526040902054610681908361113b565b336000818152600d60205260409020919091556003546106ad916001600160a01b039091169084611172565b60405182815233907f7084f5476618d8e60b11ef0d7d3f06914655adb8793e28ff7f018d4c76d505d5906020015b60405180910390a2505060018055565b6002600154141561070e5760405162461bcd60e51b81526004016104bc9061168c565b60026001553361071c610cfe565b600655610727610845565b6009556001600160a01b0381161561076e5761074281610414565b6001600160a01b0382166000908152600b6020908152604080832093909355600654600a909152919020555b600054600160a01b900460ff16156107985760405162461bcd60e51b81526004016104bc906116c3565b336000908152600b6020526040902054801561080957336000818152600b60205260408120556002546107d7916001600160a01b039091169083611172565b60405181815233907fe2403640ba68fed3a2f88b7557551d1993f84b99bb10ff833f0cf8db0c5e0486906020016106db565b505060018055565b6000546001600160a01b0316331461083b5760405162461bcd60e51b81526004016104bc90611642565b6108436111da565b565b600061050042600754611277565b6000546001600160a01b0316331461087d5760405162461bcd60e51b81526004016104bc90611642565b61084361128d565b600260015414156108a85760405162461bcd60e51b81526004016104bc9061168c565b6002600155806108b6610cfe565b6006556108c1610845565b6009556001600160a01b03811615610908576108dc81610414565b6001600160a01b0382166000908152600b6020908152604080832093909355600654600a909152919020555b600054600160a01b900460ff16156109325760405162461bcd60e51b81526004016104bc906116c3565b600083116109755760405162461bcd60e51b815260206004820152601060248201526f4e6f7468696e6720746f207374616b6560801b60448201526064016104bc565b336000908152600e60205260409020544210156109d45760405162461bcd60e51b815260206004820152601b60248201527f54696d65206c6f636b206973207374696c6c20696e20706c616365000000000060448201526064016104bc565b600c546109e19084611166565b600c556001600160a01b0382166000908152600d6020526040902054610a079084611166565b6001600160a01b0383166000908152600d6020526040902055600454610a2d9042611166565b6001600160a01b038084166000908152600e6020526040902091909155600354610a5a91163330866112f2565b816001600160a01b03167f9e71bc8eea02a63969f509818f2dafb9254532904319f9dbda79b67bd34a5f3d84604051610a9591815260200190565b60405180910390a250506001805550565b60026001541415610ac95760405162461bcd60e51b81526004016104bc9061168c565b600260015533610ad7610cfe565b600655610ae2610845565b6009556001600160a01b03811615610b2957610afd81610414565b6001600160a01b0382166000908152600b6020908152604080832093909355600654600a909152919020555b600054600160a01b900460ff1615610b535760405162461bcd60e51b81526004016104bc906116c3565b60008211610b965760405162461bcd60e51b815260206004820152601060248201526f4e6f7468696e6720746f207374616b6560801b60448201526064016104bc565b600c54610ba39083611166565b600c55336000908152600d6020526040902054610bc09083611166565b336000908152600d6020526040902055600454610bdd9042611166565b336000818152600e6020526040902091909155600354610c0a916001600160a01b039091169030856112f2565b60405182815233907f9e71bc8eea02a63969f509818f2dafb9254532904319f9dbda79b67bd34a5f3d906020016106db565b6000546001600160a01b03163314610c665760405162461bcd60e51b81526004016104bc90611642565b600754421015610cc35760405162461bcd60e51b815260206004820152602260248201527f4578697374696e67207265776172647320706572696f6420696e636f6d706c65604482015261746560f01b60648201526084016104bc565b60058190556040518181527f6e7432d67984e274e50e0b01d72417edab660176515e130ce9885fc4f817cec89060200160405180910390a150565b6000600c5460001415610d12575060065490565b610500610d41600c54610480670de0b6b3a7640000610d3b600854610d3b60095461045b610845565b9061114e565b60065490611166565b6000546001600160a01b03163314610d745760405162461bcd60e51b81526004016104bc90611642565b600054610d8e906001600160a01b03848116911683611172565b6000546040518281526001600160a01b03918216918416907ffff3b3844276f57024e0b42afec1a37f75db36511e43819a4f2a63ab7862b6489060200160405180910390a35050565b6000546001600160a01b03163314610e015760405162461bcd60e51b81526004016104bc90611642565b6000610e0b610cfe565b600655610e16610845565b6009556001600160a01b03811615610e5d57610e3181610414565b6001600160a01b0382166000908152600b6020908152604080832093909355600654600a909152919020555b600754610e6a4284611166565b1015610eb85760405162461bcd60e51b815260206004820152601d60248201527f43616e6e6f7420726564756365206578697374696e6720706572696f6400000060448201526064016104bc565b6007544210610ed357610ecb838361115a565b600855610f12565b600754600090610ee3904261113b565b90506000610efc6008548361114e90919063ffffffff16565b9050610f0c846104808784611166565b60085550505b6002546040516370a0823160e01b81523060048201526000916001600160a01b0316906370a0823190602401602060405180830381865afa158015610f5b573d6000803e3d6000fd5b505050506040513d601f19601f82011682018060405250810190610f7f91906116ed565b9050610f8b818461115a565b6008541115610fdc5760405162461bcd60e51b815260206004820152601860248201527f50726f76696465642072657761726420746f6f2068696768000000000000000060448201526064016104bc565b610fe64284611166565b6007819055426009556040805186815260208101929092527f6c07ee05dcf262f13abf9d87b846ee789d2f90fe991d495acd7d7fc109ee1f55910160405180910390a150505050565b6000546001600160a01b031633146110595760405162461bcd60e51b81526004016104bc90611642565b6000805460405147926001600160a01b039092169183156108fc02918491818181858888f19350505050158015611094573d6000803e3d6000fd5b506000546040518281526001600160a01b039091169073eeeeeeeeeeeeeeeeeeeeeeeeeeeeeeeeeeeeeeee907ffff3b3844276f57024e0b42afec1a37f75db36511e43819a4f2a63ab7862b6489060200160405180910390a350565b600054600160a01b900460ff161561111a5760405162461bcd60e51b81526004016104bc906116c3565b336000908152600d602052604090205461113390610505565b6108436106eb565b6000611147828461171c565b9392505050565b60006111478284611733565b60006111478284611752565b60006111478284611774565b6040516001600160a01b0383166024820152604481018290526111d590849063a9059cbb60e01b906064015b60408051601f198184030181529190526020810180516001600160e01b03166001600160e01b031990931692909217909152611330565b505050565b600054600160a01b900460ff1661122a5760405162461bcd60e51b815260206004820152601460248201527314185d5cd8589b194e881b9bdd081c185d5cd95960621b60448201526064016104bc565b6000805460ff60a01b191690557f5db9ee0a495bf2e6ff9c91a7834c1ba4fdd244a5e8aa4e537bd38aeae4b073aa335b6040516001600160a01b03909116815260200160405180910390a1565b60008183106112865781611147565b5090919050565b600054600160a01b900460ff16156112b75760405162461bcd60e51b81526004016104bc906116c3565b6000805460ff60a01b1916600160a01b1790557f62e78cea01bee320cd4e420270b5ea74000d11b0c9f74754ebdbfc544b05a25861125a3390565b6040516001600160a01b038085166024830152831660448201526064810182905261132a9085906323b872dd60e01b9060840161119e565b50505050565b6000611385826040518060400160405280602081526020017f5361666545524332303a206c6f772d6c6576656c2063616c6c206661696c6564815250856001600160a01b03166114029092919063ffffffff16565b8051909150156111d557808060200190518101906113a3919061178c565b6111d55760405162461bcd60e51b815260206004820152602a60248201527f5361666545524332303a204552433230206f7065726174696f6e20646964206e6044820152691bdd081cdd58d8d9595960b21b60648201526084016104bc565b60606114118484600085611419565b949350505050565b60608247101561147a5760405162461bcd60e51b815260206004820152602660248201527f416464726573733a20696e73756666696369656e742062616c616e636520666f6044820152651c8818d85b1b60d21b60648201526084016104bc565b843b6114c85760405162461bcd60e51b815260206004820152601d60248201527f416464726573733a2063616c6c20746f206e6f6e2d636f6e747261637400000060448201526064016104bc565b600080866001600160a01b031685876040516114e491906117da565b60006040518083038185875af1925050503d8060008114611521576040519150601f19603f3d011682016040523d82523d6000602084013e611526565b606091505b5091509150611536828286611541565b979650505050505050565b60608315611550575081611147565b8251156115605782518084602001fd5b8160405162461bcd60e51b81526004016104bc91906117f6565b80356001600160a01b038116811461159157600080fd5b919050565b6000602082840312156115a857600080fd5b6111478261157a565b6000602082840312156115c357600080fd5b5035919050565b600080604083850312156115dd57600080fd5b823591506115ed6020840161157a565b90509250929050565b6000806040838503121561160957600080fd5b6116128361157a565b946020939093013593505050565b6000806040838503121561163357600080fd5b50508035926020909101359150565b6020808252602a908201527f43616c6c6572206973206e6f742052657761726473446973747269627574696f6040820152691b8818dbdb9d1c9858dd60b21b606082015260800190565b6020808252601f908201527f5265656e7472616e637947756172643a207265656e7472616e742063616c6c00604082015260600190565b60208082526010908201526f14185d5cd8589b194e881c185d5cd95960821b604082015260600190565b6000602082840312156116ff57600080fd5b5051919050565b634e487b7160e01b600052601160045260246000fd5b60008282101561172e5761172e611706565b500390565b600081600019048311821515161561174d5761174d611706565b500290565b60008261176f57634e487b7160e01b600052601260045260246000fd5b500490565b6000821982111561178757611787611706565b500190565b60006020828403121561179e57600080fd5b8151801515811461114757600080fd5b60005b838110156117c95781810151838201526020016117b1565b8381111561132a5750506000910152565b600082516117ec8184602087016117ae565b9190910192915050565b60208152600082518060208401526118158160408501602087016117ae565b601f01601f1916919091016040019291505056fea2646970667358221220dc65e7839622a23b6b930196ca650f5578e08e84483becec8dcd719d502bb71364736f6c634300080b0033",
  "immutableReferences": {},
  "source": "// SPDX-License-Identifier: MIT\npragma solidity ^0.8.0;\n\n//import \"@openzeppelin/contracts/access/Ownable.sol\";\nimport \"@openzeppelin/contracts/security/Pausable.sol\";\nimport \"@openzeppelin/contracts/security/ReentrancyGuard.sol\";\nimport \"@openzeppelin/contracts/token/ERC20/IERC20.sol\";\nimport \"@openzeppelin/contracts/token/ERC20/utils/SafeERC20.sol\";\nimport \"@openzeppelin/contracts/utils/math/Math.sol\";\nimport \"@openzeppelin/contracts/utils/math/SafeMath.sol\";\n\nimport \"./interfaces/IStakingRewards.sol\";\nimport \"./RewardsDistributionRecipient.sol\";\n\ncontract StakingRewards is\n    IStakingRewards,\n    RewardsDistributionRecipient,\n    Pausable,\n    ReentrancyGuard\n{\n    using SafeERC20 for IERC20;\n    using SafeMath for uint256;\n\n    /* ========== STATE VARIABLES ========== */\n    IERC20 public rewardsToken; // constructor\n    IERC20 public stakingToken; // constructor\n\n    uint256 public lockingPeriod = 5 days; // essentially unmodifiable, consider modify with factory\n    uint256 public rewardsDuration = 5 days; // essentially unmodifiable, consider modify with factory\n    uint256 public rewardPerTokenStored; // updateReward\n\n    uint256 public periodFinish = 0; // claimRewardAmount\n    uint256 public rewardRate = 0; // claimRewardAmount\n    uint256 public lastUpdateTime; // claimRewardAmount, updateReward\n\n    mapping(address => uint256) public userRewardPerTokenPaid; // updateReward\n    mapping(address => uint256) public rewards; // updateReward\n\n    uint256 private totalSupply_;\n    mapping(address => uint256) private balances_;\n    mapping(address => uint256) private lockingTimeStamp_;\n\n    /* ========== CONSTRUCTOR ========== */\n    constructor(\n        address _rewardsDistribution,\n        address _rewardsToken,\n        address _stakingToken\n    ) {\n        rewardsDistribution = _rewardsDistribution;\n        rewardsToken = IERC20(_rewardsToken);\n        stakingToken = IERC20(_stakingToken);\n    }\n\n    /* ========== VIEWS ========== */\n    function balanceOf(address _account)\n        external\n        view\n        override\n        returns (uint256)\n    {\n        return balances_[_account];\n    }\n\n    function earned(address _account) public view override returns (uint256) {\n        return\n            balances_[_account]\n                .mul(rewardPerToken().sub(userRewardPerTokenPaid[_account]))\n                .div(1e18)\n                .add(rewards[_account]); // TODO notice reward token decimals\n    }\n\n    function getRewardForDuration() external view override returns (uint256) {\n        return rewardRate.mul(rewardsDuration);\n    }\n\n    function getTotalSupply() external view override returns (uint256) {\n        return totalSupply_;\n    }\n\n    function lastTimeRewardApplicable() public view override returns (uint256) {\n        return Math.min(block.timestamp, periodFinish);\n    }\n\n    function rewardPerToken() public view override returns (uint256) {\n        if (totalSupply_ == 0) {\n            return rewardPerTokenStored;\n        }\n        return\n            rewardPerTokenStored.add(\n                lastTimeRewardApplicable()\n                    .sub(lastUpdateTime)\n                    .mul(rewardRate)\n                    .mul(1e18)\n                    .div(totalSupply_) // TODO notice reward token decimals\n            );\n    }\n\n    function viewLockingTimeStamp(address _account)\n        external\n        view\n        override\n        returns (uint256)\n    {\n        return lockingTimeStamp_[_account];\n    }\n\n    /* ========== MUTATIVE FUNCTIONS ========== */\n    function stake(uint256 _amount)\n        external\n        override\n        nonReentrant\n        updateReward(msg.sender)\n        whenNotPaused\n    {\n        require(_amount > 0, \"Nothing to stake\");\n        // TODO Front-end: Warn locking period reset if stake already exists\n        totalSupply_ = totalSupply_.add(_amount);\n        balances_[msg.sender] = balances_[msg.sender].add(_amount);\n        lockingTimeStamp_[msg.sender] = lockingPeriod.add(block.timestamp);\n        stakingToken.safeTransferFrom(msg.sender, address(this), _amount);\n        emit Staked(msg.sender, _amount);\n    }\n\n    function stakeTransferWithBalance(uint256 _amount, address _account)\n        external\n        override\n        nonReentrant\n        updateReward(_account)\n        whenNotPaused\n    {\n        require(_amount > 0, \"Nothing to stake\");\n        // Intentionally revert if stake already exists (lockingTimeStamp_ reset attack)\n        require(\n            block.timestamp >= lockingTimeStamp_[msg.sender],\n            \"Time lock is still in place\"\n        );\n        totalSupply_ = totalSupply_.add(_amount);\n        balances_[_account] = balances_[_account].add(_amount);\n        lockingTimeStamp_[_account] = lockingPeriod.add(block.timestamp);\n        stakingToken.safeTransferFrom(msg.sender, address(this), _amount);\n        emit Staked(_account, _amount);\n    }\n\n    function withdraw(uint256 _amount)\n        public\n        override\n        nonReentrant\n        updateReward(msg.sender)\n        whenNotPaused\n    {\n        require(_amount > 0, \"Nothing to withdraw\");\n        require(\n            block.timestamp >= lockingTimeStamp_[msg.sender],\n            \"Time lock is still in place\"\n        );\n        totalSupply_ = totalSupply_.sub(_amount);\n        balances_[msg.sender] = balances_[msg.sender].sub(_amount);\n        // lockingTimeStamp_ reset unneeded, is unix epoch\n        // consider reset if balances_[msg.sender] == 0\n        stakingToken.safeTransfer(msg.sender, _amount);\n        emit Withdrawn(msg.sender, _amount);\n    }\n\n    function getReward()\n        public\n        override\n        nonReentrant\n        updateReward(msg.sender)\n        whenNotPaused\n    {\n        uint256 reward = rewards[msg.sender];\n        if (reward > 0) {\n            rewards[msg.sender] = 0;\n            rewardsToken.safeTransfer(msg.sender, reward);\n            emit RewardPaid(msg.sender, reward);\n        }\n    }\n\n    function quit() external override whenNotPaused {\n        // withdraw & getReward have nonReentrant\n        withdraw(balances_[msg.sender]);\n        getReward();\n    }\n\n    /* ========== RESTRICTED FUNCTIONS ========== */\n    function claimRewardAmount(uint256 _reward, uint256 _duration)\n        external\n        override\n        onlyRewardsDistribution\n        updateReward(address(0))\n    {\n        require(\n            block.timestamp.add(_duration) >= periodFinish,\n            \"Cannot reduce existing period\"\n        );\n\n        if (block.timestamp >= periodFinish) {\n            rewardRate = _reward.div(_duration);\n        } else {\n            uint256 remaining = periodFinish.sub(block.timestamp);\n            uint256 leftover = remaining.mul(rewardRate);\n            rewardRate = _reward.add(leftover).div(_duration);\n        }\n\n        uint256 balance = rewardsToken.balanceOf(address(this));\n        require(\n            rewardRate <= balance.div(_duration),\n            \"Provided reward too high\"\n        );\n\n        periodFinish = block.timestamp.add(_duration);\n        lastUpdateTime = block.timestamp;\n        emit RewardAdded(_reward, periodFinish);\n    }\n\n    function setRewardsDuration(uint256 _duration)\n        external\n        onlyRewardsDistribution\n    {\n        require(\n            block.timestamp >= periodFinish,\n            \"Existing rewards period incomplete\"\n        );\n        rewardsDuration = _duration;\n        emit rewardsDurationUpdated(rewardsDuration);\n    }\n\n    function recoverLostNetworkToken() external onlyRewardsDistribution {\n        uint256 _amount = address(this).balance;\n        payable(rewardsDistribution).transfer(_amount);\n        emit Recovered(\n            address(0xEeeeeEeeeEeEeeEeEeEeeEEEeeeeEeeeeeeeEEeE), // common native network token denotation\n            rewardsDistribution,\n            _amount\n        );\n    }\n\n    function recoverLostTokenERC20(address _token, uint256 _amount)\n        external\n        onlyRewardsDistribution\n    {\n        IERC20(_token).safeTransfer(rewardsDistribution, _amount);\n        emit Recovered(_token, rewardsDistribution, _amount);\n    }\n\n    function pause() external onlyRewardsDistribution {\n        _pause();\n    }\n\n    function unpause() external onlyRewardsDistribution {\n        _unpause();\n    }\n\n    /* ========== MODIFIERS ========== */\n    modifier updateReward(address _account) {\n        rewardPerTokenStored = rewardPerToken();\n        lastUpdateTime = lastTimeRewardApplicable();\n        if (_account != address(0)) {\n            rewards[_account] = earned(_account);\n            userRewardPerTokenPaid[_account] = rewardPerTokenStored;\n        }\n        _;\n    }\n\n    /* ========== EVENTS ========== */\n    event RewardAdded(uint256 _reward, uint256 _periodFinish);\n    event rewardsDurationUpdated(uint256 _duration);\n    event Staked(address indexed _user, uint256 _amount);\n    event Withdrawn(address indexed _user, uint256 _amount);\n    event RewardPaid(address indexed _user, uint256 _reward);\n    event Recovered(\n        address indexed _tokenAddress,\n        address indexed _to,\n        uint256 _amount\n    );\n}\n",
  "sourcePath": "/home/owo/Downloads/solidity-test/solidity-test/contracts/StakingRewards.sol",
  "compiler": {
    "name": "solc",
    "version": "0.8.11+commit.d7f03943.Emscripten.clang"
  },
  "schemaVersion": "3.4.4",
  "updatedAt": "2022-02-09T04:46:53.843Z",
  "devdoc": {
    "kind": "dev",
    "methods": {
      "paused()": {
        "details": "Returns true if the contract is paused, and false otherwise."
      }
    },
    "version": 1
  },
  "userdoc": {
    "kind": "user",
    "methods": {},
    "version": 1
  }
}