{
  "contractName": "StakingRewardsFactory",
  "abi": [
    {
      "inputs": [
        {
          "internalType": "address",
          "name": "_rewardsToken",
          "type": "address"
        },
        {
          "internalType": "uint256",
          "name": "_stakingRewardsGenesis",
          "type": "uint256"
        }
      ],
      "stateMutability": "nonpayable",
      "type": "constructor"
    },
    {
      "anonymous": false,
      "inputs": [
        {
          "indexed": true,
          "internalType": "address",
          "name": "previousOwner",
          "type": "address"
        },
        {
          "indexed": true,
          "internalType": "address",
          "name": "newOwner",
          "type": "address"
        }
      ],
      "name": "OwnershipTransferred",
      "type": "event"
    },
    {
      "inputs": [],
      "name": "owner",
      "outputs": [
        {
          "internalType": "address",
          "name": "",
          "type": "address"
        }
      ],
      "stateMutability": "view",
      "type": "function",
      "constant": true
    },
    {
      "inputs": [],
      "name": "renounceOwnership",
      "outputs": [],
      "stateMutability": "nonpayable",
      "type": "function"
    },
    {
      "inputs": [],
      "name": "rewardsToken",
      "outputs": [
        {
          "internalType": "address",
          "name": "",
          "type": "address"
        }
      ],
      "stateMutability": "view",
      "type": "function",
      "constant": true
    },
    {
      "inputs": [],
      "name": "stakingRewardsGenesis",
      "outputs": [
        {
          "internalType": "uint256",
          "name": "",
          "type": "uint256"
        }
      ],
      "stateMutability": "view",
      "type": "function",
      "constant": true
    },
    {
      "inputs": [
        {
          "internalType": "address",
          "name": "",
          "type": "address"
        }
      ],
      "name": "stakingRewardsInfoByStakingToken",
      "outputs": [
        {
          "internalType": "address",
          "name": "stakingRewards",
          "type": "address"
        },
        {
          "internalType": "uint256",
          "name": "rewardAmount",
          "type": "uint256"
        },
        {
          "internalType": "uint256",
          "name": "duration",
          "type": "uint256"
        }
      ],
      "stateMutability": "view",
      "type": "function",
      "constant": true
    },
    {
      "inputs": [
        {
          "internalType": "uint256",
          "name": "",
          "type": "uint256"
        }
      ],
      "name": "stakingTokens",
      "outputs": [
        {
          "internalType": "address",
          "name": "",
          "type": "address"
        }
      ],
      "stateMutability": "view",
      "type": "function",
      "constant": true
    },
    {
      "inputs": [
        {
          "internalType": "address",
          "name": "newOwner",
          "type": "address"
        }
      ],
      "name": "transferOwnership",
      "outputs": [],
      "stateMutability": "nonpayable",
      "type": "function"
    },
    {
      "inputs": [
        {
          "internalType": "address",
          "name": "_stakingToken",
          "type": "address"
        },
        {
          "internalType": "uint256",
          "name": "_rewardAmount",
          "type": "uint256"
        },
        {
          "internalType": "uint256",
          "name": "_rewardsDuration",
          "type": "uint256"
        }
      ],
      "name": "deploy",
      "outputs": [],
      "stateMutability": "nonpayable",
      "type": "function"
    },
    {
      "inputs": [
        {
          "internalType": "address",
          "name": "_stakingToken",
          "type": "address"
        },
        {
          "internalType": "uint256",
          "name": "_rewardAmount",
          "type": "uint256"
        },
        {
          "internalType": "uint256",
          "name": "_rewardsDuration",
          "type": "uint256"
        }
      ],
      "name": "update",
      "outputs": [],
      "stateMutability": "nonpayable",
      "type": "function"
    },
    {
      "inputs": [
        {
          "internalType": "address",
          "name": "_stakingToken",
          "type": "address"
        },
        {
          "internalType": "uint256",
          "name": "_duration",
          "type": "uint256"
        }
      ],
      "name": "setRewardsDuration",
      "outputs": [],
      "stateMutability": "nonpayable",
      "type": "function"
    },
    {
      "inputs": [
        {
          "internalType": "address",
          "name": "_stakingToken",
          "type": "address"
        }
      ],
      "name": "recoverLostNetworkToken",
      "outputs": [],
      "stateMutability": "nonpayable",
      "type": "function"
    },
    {
      "inputs": [
        {
          "internalType": "address",
          "name": "_stakingToken",
          "type": "address"
        },
        {
          "internalType": "address",
          "name": "_token",
          "type": "address"
        },
        {
          "internalType": "uint256",
          "name": "_amount",
          "type": "uint256"
        }
      ],
      "name": "recoverLostTokenERC20",
      "outputs": [],
      "stateMutability": "nonpayable",
      "type": "function"
    },
    {
      "inputs": [
        {
          "internalType": "address",
          "name": "_stakingToken",
          "type": "address"
        }
      ],
      "name": "pause",
      "outputs": [],
      "stateMutability": "nonpayable",
      "type": "function"
    },
    {
      "inputs": [
        {
          "internalType": "address",
          "name": "_stakingToken",
          "type": "address"
        }
      ],
      "name": "unpause",
      "outputs": [],
      "stateMutability": "nonpayable",
      "type": "function"
    },
    {
      "inputs": [],
      "name": "claimRewardAmounts",
      "outputs": [],
      "stateMutability": "nonpayable",
      "type": "function"
    },
    {
      "inputs": [
        {
          "internalType": "address",
          "name": "_stakingToken",
          "type": "address"
        }
      ],
      "name": "claimRewardAmount",
      "outputs": [],
      "stateMutability": "nonpayable",
      "type": "function"
    }
  ],
  "bytecode": "0x608060405234801561001057600080fd5b506040516128b13803806128b183398101604081905261002f9161012b565b610038336100db565b428110156100b25760405162461bcd60e51b815260206004820152603460248201527f5374616b696e6752657761726473466163746f72793a3a636f6e73747275637460448201527f6f723a2067656e6573697320746f6f20736f6f6e000000000000000000000000606482015260840160405180910390fd5b600180546001600160a01b0319166001600160a01b039390931692909217909155600255610165565b600080546001600160a01b038381166001600160a01b0319831681178455604051919092169283917f8be0079c531659141344cd1fd0a4f28419497f9722a3daafe3b4186f6b6457e09190a35050565b6000806040838503121561013e57600080fd5b82516001600160a01b038116811461015557600080fd5b6020939093015192949293505050565b61273d806101746000396000f3fe608060405234801561001057600080fd5b50600436106101005760003560e01c8063a0928c1111610097578063cfda547811610066578063cfda54781461023f578063d09b6d4314610252578063d1af0c7d14610265578063f2fde38b1461027857600080fd5b8063a0928c11146101fa578063bf44ba6c14610211578063cc0b713814610219578063cc19ecd91461022c57600080fd5b80636cf8caf8116100d35780636cf8caf814610170578063715018a6146101ce57806376a67a51146101d65780638da5cb5b146101e957600080fd5b80632378bea614610105578063344e5e341461011a5780633504c5bb1461014a57806357b001f91461015d575b600080fd5b610118610113366004610c10565b61028b565b005b61012d610128366004610c3a565b61031c565b6040516001600160a01b0390911681526020015b60405180910390f35b610118610158366004610c53565b610346565b61011861016b366004610c8f565b6103d7565b6101a961017e366004610c8f565b6004602052600090815260409020805460018201546002909201546001600160a01b03909116919083565b604080516001600160a01b039094168452602084019290925290820152606001610141565b610118610457565b6101186101e4366004610c8f565b61048d565b6000546001600160a01b031661012d565b61020360025481565b604051908152602001610141565b6101186104f2565b610118610227366004610c8f565b6105b5565b61011861023a366004610c8f565b6107fc565b61011861024d366004610cb1565b610861565b610118610260366004610cb1565b6109d5565b60015461012d906001600160a01b031681565b610118610286366004610c8f565b610b03565b6000546001600160a01b031633146102be5760405162461bcd60e51b81526004016102b590610ce4565b60405180910390fd5b60405163cc1a378f60e01b8152600481018290526001600160a01b0383169063cc1a378f90602401600060405180830381600087803b15801561030057600080fd5b505af1158015610314573d6000803e3d6000fd5b505050505050565b6003818154811061032c57600080fd5b6000918252602090912001546001600160a01b0316905081565b6000546001600160a01b031633146103705760405162461bcd60e51b81526004016102b590610ce4565b604051631c7cd9a360e31b81526001600160a01b0383811660048301526024820183905284169063e3e6cd1890604401600060405180830381600087803b1580156103ba57600080fd5b505af11580156103ce573d6000803e3d6000fd5b50505050505050565b6000546001600160a01b031633146104015760405162461bcd60e51b81526004016102b590610ce4565b806001600160a01b0316633f4ba83a6040518163ffffffff1660e01b8152600401600060405180830381600087803b15801561043c57600080fd5b505af1158015610450573d6000803e3d6000fd5b5050505050565b6000546001600160a01b031633146104815760405162461bcd60e51b81526004016102b590610ce4565b61048b6000610b97565b565b6000546001600160a01b031633146104b75760405162461bcd60e51b81526004016102b590610ce4565b806001600160a01b0316638456cb596040518163ffffffff1660e01b8152600401600060405180830381600087803b15801561043c57600080fd5b6003546105635760405162461bcd60e51b8152602060048201526044602482018190526000805160206126e8833981519152908201527f7264416d6f756e74733a2063616c6c6564206265666f726520616e79206465706064820152636c6f797360e01b608482015260a4016102b5565b60005b6003548110156105b2576105a06003828154811061058657610586610d19565b6000918252602090912001546001600160a01b03166105b5565b806105aa81610d2f565b915050610566565b50565b6002544210156106105760405162461bcd60e51b815260206004820152603260248201526000805160206126e8833981519152604482015271393220b6b7bab73a1d103a37b79039b7b7b760711b60648201526084016102b5565b6001600160a01b03808216600090815260046020526040902080549091166106875760405162461bcd60e51b815260206004820152603660248201526000805160206126e88339815191526044820152751c99105b5bdd5b9d0e881b9bdd0819195c1b1bde595960521b60648201526084016102b5565b6000816001015411801561069f575060008160020154115b156107f857600181810180546002840180546000938490559290559154835460405163a9059cbb60e01b81526001600160a01b0391821660048201526024810185905291169063a9059cbb906044016020604051808303816000875af115801561070d573d6000803e3d6000fd5b505050506040513d601f19601f820116820180604052508101906107319190610d58565b6107915760405162461bcd60e51b815260206004820152603960248201526000805160206126e883398151915260448201527f7264416d6f756e743a207472616e73666572206661696c65640000000000000060648201526084016102b5565b825460405163e5cd8a6f60e01b815260048101849052602481018390526001600160a01b039091169063e5cd8a6f90604401600060405180830381600087803b1580156107dd57600080fd5b505af11580156107f1573d6000803e3d6000fd5b5050505050505b5050565b6000546001600160a01b031633146108265760405162461bcd60e51b81526004016102b590610ce4565b806001600160a01b031663fa4ea2be6040518163ffffffff1660e01b8152600401600060405180830381600087803b15801561043c57600080fd5b6000546001600160a01b0316331461088b5760405162461bcd60e51b81526004016102b590610ce4565b6001600160a01b03808416600090815260046020526040902080549091161561090e5760405162461bcd60e51b815260206004820152602f60248201527f5374616b696e6752657761726473466163746f72793a3a6465706c6f793a206160448201526e1b1c9958591e4819195c1b1bde5959608a1b60648201526084016102b5565b60015460405130916001600160a01b031690869061092b90610be7565b6001600160a01b03938416815291831660208301529091166040820152606001604051809103906000f080158015610967573d6000803e3d6000fd5b5081546001600160a01b03199081166001600160a01b039283161783556001808401959095556002909201929092556003805493840181556000527fc2575a0e9e593c00f959f8c92f12db2869c3395a3b0502d05e2516446f71f85b90920180549092169216919091179055565b6000546001600160a01b031633146109ff5760405162461bcd60e51b81526004016102b590610ce4565b6001600160a01b0380841660009081526004602052604090208054909116610a7d5760405162461bcd60e51b815260206004820152602b60248201527f5374616b696e6752657761726473466163746f72793a3a6465706c6f793a206e60448201526a1bdd0819195c1b1bde595960aa1b60648201526084016102b5565b60015460405130916001600160a01b0316908690610a9a90610be7565b6001600160a01b03938416815291831660208301529091166040820152606001604051809103906000f080158015610ad6573d6000803e3d6000fd5b5081546001600160a01b0319166001600160a01b0391909116178155600181019290925560029091015550565b6000546001600160a01b03163314610b2d5760405162461bcd60e51b81526004016102b590610ce4565b6001600160a01b038116610b925760405162461bcd60e51b815260206004820152602660248201527f4f776e61626c653a206e6577206f776e657220697320746865207a65726f206160448201526564647265737360d01b60648201526084016102b5565b6105b2815b600080546001600160a01b038381166001600160a01b0319831681178455604051919092169283917f8be0079c531659141344cd1fd0a4f28419497f9722a3daafe3b4186f6b6457e09190a35050565b61196d80610d7b83390190565b80356001600160a01b0381168114610c0b57600080fd5b919050565b60008060408385031215610c2357600080fd5b610c2c83610bf4565b946020939093013593505050565b600060208284031215610c4c57600080fd5b5035919050565b600080600060608486031215610c6857600080fd5b610c7184610bf4565b9250610c7f60208501610bf4565b9150604084013590509250925092565b600060208284031215610ca157600080fd5b610caa82610bf4565b9392505050565b600080600060608486031215610cc657600080fd5b610ccf84610bf4565b95602085013595506040909401359392505050565b6020808252818101527f4f776e61626c653a2063616c6c6572206973206e6f7420746865206f776e6572604082015260600190565b634e487b7160e01b600052603260045260246000fd5b6000600019821415610d5157634e487b7160e01b600052601160045260246000fd5b5060010190565b600060208284031215610d6a57600080fd5b81518015158114610caa57600080fdfe60806040526206978060045562069780600555600060075560006008553480156200002957600080fd5b506040516200196d3803806200196d8339810160408190526200004c91620000b4565b60008054600180556001600160a01b039485166001600160a81b0319909116179055600280549284166001600160a01b031993841617905560038054919093169116179055620000fe565b80516001600160a01b0381168114620000af57600080fd5b919050565b600080600060608486031215620000ca57600080fd5b620000d58462000097565b9250620000e56020850162000097565b9150620000f56040850162000097565b90509250925092565b61185f806200010e6000396000f3fe608060405234801561001057600080fd5b50600436106101e45760003560e01c80638456cb591161010f578063cd3daf9d116100a2578063e5cd8a6f11610071578063e5cd8a6f146103e8578063ebe2b12b146103fb578063fa4ea2be14610404578063fc2b8cc31461040c57600080fd5b8063cd3daf9d146103b1578063d1af0c7d146103b9578063df136d65146103cc578063e3e6cd18146103d557600080fd5b8063bfd837ac116100de578063bfd837ac14610364578063c4e41b221461038d578063c8f33c9114610395578063cc1a378f1461039e57600080fd5b80638456cb59146103165780638b8763471461031e5780638c7283c61461033e578063a694fc3a1461035157600080fd5b80633f4ba83a1161018757806370a082311161015657806370a08231146102c957806372f702f3146102f25780637b0a47ee1461030557806380faa57d1461030e57600080fd5b80633f4ba83a146102705780633fc6df6e14610278578063550066d5146102a35780635c975abb146102ac57600080fd5b80631c1f78eb116101c35780631c1f78eb146102445780632e1a7d4d1461024c578063386a95251461025f5780633d18b9121461026857600080fd5b80628cc262146101e95780630700037d1461020f578063197621431461022f575b600080fd5b6101fc6101f7366004611596565b610414565b6040519081526020015b60405180910390f35b6101fc61021d366004611596565b600b6020526000908152604090205481565b61024261023d366004611596565b610492565b005b6101fc6104e7565b61024261025a3660046115b1565b610505565b6101fc60055481565b6102426106eb565b610242610811565b60005461028b906001600160a01b031681565b6040516001600160a01b039091168152602001610206565b6101fc60045481565b600054600160a01b900460ff166040519015158152602001610206565b6101fc6102d7366004611596565b6001600160a01b03166000908152600d602052604090205490565b60035461028b906001600160a01b031681565b6101fc60085481565b6101fc610845565b610242610853565b6101fc61032c366004611596565b600a6020526000908152604090205481565b61024261034c3660046115ca565b610885565b61024261035f3660046115b1565b610aa6565b6101fc610372366004611596565b6001600160a01b03166000908152600e602052604090205490565b600c546101fc565b6101fc60095481565b6102426103ac3660046115b1565b610c3c565b6101fc610cfe565b60025461028b906001600160a01b031681565b6101fc60065481565b6102426103e33660046115f6565b610d4a565b6102426103f6366004611620565b610dd7565b6101fc60075481565b61024261102f565b6102426110f0565b6001600160a01b0381166000908152600b6020908152604080832054600a90925282205461048c919061048690670de0b6b3a764000090610480906104619061045b610cfe565b9061113b565b6001600160a01b0388166000908152600d60205260409020549061114e565b9061115a565b90611166565b92915050565b6000546001600160a01b031633146104c55760405162461bcd60e51b81526004016104bc90611642565b60405180910390fd5b600080546001600160a01b0319166001600160a01b0392909216919091179055565b600061050060055460085461114e90919063ffffffff16565b905090565b600260015414156105285760405162461bcd60e51b81526004016104bc9061168c565b600260015533610536610cfe565b600655610541610845565b6009556001600160a01b038116156105885761055c81610414565b6001600160a01b0382166000908152600b6020908152604080832093909355600654600a909152919020555b600054600160a01b900460ff16156105b25760405162461bcd60e51b81526004016104bc906116c3565b600082116105f85760405162461bcd60e51b81526020600482015260136024820152724e6f7468696e6720746f20776974686472617760681b60448201526064016104bc565b336000908152600e60205260409020544210156106575760405162461bcd60e51b815260206004820152601b60248201527f54696d65206c6f636b206973207374696c6c20696e20706c616365000000000060448201526064016104bc565b600c54610664908361113b565b600c55336000908152600d6020526040902054610681908361113b565b336000818152600d60205260409020919091556003546106ad916001600160a01b039091169084611172565b60405182815233907f7084f5476618d8e60b11ef0d7d3f06914655adb8793e28ff7f018d4c76d505d5906020015b60405180910390a2505060018055565b6002600154141561070e5760405162461bcd60e51b81526004016104bc9061168c565b60026001553361071c610cfe565b600655610727610845565b6009556001600160a01b0381161561076e5761074281610414565b6001600160a01b0382166000908152600b6020908152604080832093909355600654600a909152919020555b600054600160a01b900460ff16156107985760405162461bcd60e51b81526004016104bc906116c3565b336000908152600b6020526040902054801561080957336000818152600b60205260408120556002546107d7916001600160a01b039091169083611172565b60405181815233907fe2403640ba68fed3a2f88b7557551d1993f84b99bb10ff833f0cf8db0c5e0486906020016106db565b505060018055565b6000546001600160a01b0316331461083b5760405162461bcd60e51b81526004016104bc90611642565b6108436111da565b565b600061050042600754611277565b6000546001600160a01b0316331461087d5760405162461bcd60e51b81526004016104bc90611642565b61084361128d565b600260015414156108a85760405162461bcd60e51b81526004016104bc9061168c565b6002600155806108b6610cfe565b6006556108c1610845565b6009556001600160a01b03811615610908576108dc81610414565b6001600160a01b0382166000908152600b6020908152604080832093909355600654600a909152919020555b600054600160a01b900460ff16156109325760405162461bcd60e51b81526004016104bc906116c3565b600083116109755760405162461bcd60e51b815260206004820152601060248201526f4e6f7468696e6720746f207374616b6560801b60448201526064016104bc565b336000908152600e60205260409020544210156109d45760405162461bcd60e51b815260206004820152601b60248201527f54696d65206c6f636b206973207374696c6c20696e20706c616365000000000060448201526064016104bc565b600c546109e19084611166565b600c556001600160a01b0382166000908152600d6020526040902054610a079084611166565b6001600160a01b0383166000908152600d6020526040902055600454610a2d9042611166565b6001600160a01b038084166000908152600e6020526040902091909155600354610a5a91163330866112f2565b816001600160a01b03167f9e71bc8eea02a63969f509818f2dafb9254532904319f9dbda79b67bd34a5f3d84604051610a9591815260200190565b60405180910390a250506001805550565b60026001541415610ac95760405162461bcd60e51b81526004016104bc9061168c565b600260015533610ad7610cfe565b600655610ae2610845565b6009556001600160a01b03811615610b2957610afd81610414565b6001600160a01b0382166000908152600b6020908152604080832093909355600654600a909152919020555b600054600160a01b900460ff1615610b535760405162461bcd60e51b81526004016104bc906116c3565b60008211610b965760405162461bcd60e51b815260206004820152601060248201526f4e6f7468696e6720746f207374616b6560801b60448201526064016104bc565b600c54610ba39083611166565b600c55336000908152600d6020526040902054610bc09083611166565b336000908152600d6020526040902055600454610bdd9042611166565b336000818152600e6020526040902091909155600354610c0a916001600160a01b039091169030856112f2565b60405182815233907f9e71bc8eea02a63969f509818f2dafb9254532904319f9dbda79b67bd34a5f3d906020016106db565b6000546001600160a01b03163314610c665760405162461bcd60e51b81526004016104bc90611642565b600754421015610cc35760405162461bcd60e51b815260206004820152602260248201527f4578697374696e67207265776172647320706572696f6420696e636f6d706c65604482015261746560f01b60648201526084016104bc565b60058190556040518181527f6e7432d67984e274e50e0b01d72417edab660176515e130ce9885fc4f817cec89060200160405180910390a150565b6000600c5460001415610d12575060065490565b610500610d41600c54610480670de0b6b3a7640000610d3b600854610d3b60095461045b610845565b9061114e565b60065490611166565b6000546001600160a01b03163314610d745760405162461bcd60e51b81526004016104bc90611642565b600054610d8e906001600160a01b03848116911683611172565b6000546040518281526001600160a01b03918216918416907ffff3b3844276f57024e0b42afec1a37f75db36511e43819a4f2a63ab7862b6489060200160405180910390a35050565b6000546001600160a01b03163314610e015760405162461bcd60e51b81526004016104bc90611642565b6000610e0b610cfe565b600655610e16610845565b6009556001600160a01b03811615610e5d57610e3181610414565b6001600160a01b0382166000908152600b6020908152604080832093909355600654600a909152919020555b600754610e6a4284611166565b1015610eb85760405162461bcd60e51b815260206004820152601d60248201527f43616e6e6f7420726564756365206578697374696e6720706572696f6400000060448201526064016104bc565b6007544210610ed357610ecb838361115a565b600855610f12565b600754600090610ee3904261113b565b90506000610efc6008548361114e90919063ffffffff16565b9050610f0c846104808784611166565b60085550505b6002546040516370a0823160e01b81523060048201526000916001600160a01b0316906370a0823190602401602060405180830381865afa158015610f5b573d6000803e3d6000fd5b505050506040513d601f19601f82011682018060405250810190610f7f91906116ed565b9050610f8b818461115a565b6008541115610fdc5760405162461bcd60e51b815260206004820152601860248201527f50726f76696465642072657761726420746f6f2068696768000000000000000060448201526064016104bc565b610fe64284611166565b6007819055426009556040805186815260208101929092527f6c07ee05dcf262f13abf9d87b846ee789d2f90fe991d495acd7d7fc109ee1f55910160405180910390a150505050565b6000546001600160a01b031633146110595760405162461bcd60e51b81526004016104bc90611642565b6000805460405147926001600160a01b039092169183156108fc02918491818181858888f19350505050158015611094573d6000803e3d6000fd5b506000546040518281526001600160a01b039091169073eeeeeeeeeeeeeeeeeeeeeeeeeeeeeeeeeeeeeeee907ffff3b3844276f57024e0b42afec1a37f75db36511e43819a4f2a63ab7862b6489060200160405180910390a350565b600054600160a01b900460ff161561111a5760405162461bcd60e51b81526004016104bc906116c3565b336000908152600d602052604090205461113390610505565b6108436106eb565b6000611147828461171c565b9392505050565b60006111478284611733565b60006111478284611752565b60006111478284611774565b6040516001600160a01b0383166024820152604481018290526111d590849063a9059cbb60e01b906064015b60408051601f198184030181529190526020810180516001600160e01b03166001600160e01b031990931692909217909152611330565b505050565b600054600160a01b900460ff1661122a5760405162461bcd60e51b815260206004820152601460248201527314185d5cd8589b194e881b9bdd081c185d5cd95960621b60448201526064016104bc565b6000805460ff60a01b191690557f5db9ee0a495bf2e6ff9c91a7834c1ba4fdd244a5e8aa4e537bd38aeae4b073aa335b6040516001600160a01b03909116815260200160405180910390a1565b60008183106112865781611147565b5090919050565b600054600160a01b900460ff16156112b75760405162461bcd60e51b81526004016104bc906116c3565b6000805460ff60a01b1916600160a01b1790557f62e78cea01bee320cd4e420270b5ea74000d11b0c9f74754ebdbfc544b05a25861125a3390565b6040516001600160a01b038085166024830152831660448201526064810182905261132a9085906323b872dd60e01b9060840161119e565b50505050565b6000611385826040518060400160405280602081526020017f5361666545524332303a206c6f772d6c6576656c2063616c6c206661696c6564815250856001600160a01b03166114029092919063ffffffff16565b8051909150156111d557808060200190518101906113a3919061178c565b6111d55760405162461bcd60e51b815260206004820152602a60248201527f5361666545524332303a204552433230206f7065726174696f6e20646964206e6044820152691bdd081cdd58d8d9595960b21b60648201526084016104bc565b60606114118484600085611419565b949350505050565b60608247101561147a5760405162461bcd60e51b815260206004820152602660248201527f416464726573733a20696e73756666696369656e742062616c616e636520666f6044820152651c8818d85b1b60d21b60648201526084016104bc565b843b6114c85760405162461bcd60e51b815260206004820152601d60248201527f416464726573733a2063616c6c20746f206e6f6e2d636f6e747261637400000060448201526064016104bc565b600080866001600160a01b031685876040516114e491906117da565b60006040518083038185875af1925050503d8060008114611521576040519150601f19603f3d011682016040523d82523d6000602084013e611526565b606091505b5091509150611536828286611541565b979650505050505050565b60608315611550575081611147565b8251156115605782518084602001fd5b8160405162461bcd60e51b81526004016104bc91906117f6565b80356001600160a01b038116811461159157600080fd5b919050565b6000602082840312156115a857600080fd5b6111478261157a565b6000602082840312156115c357600080fd5b5035919050565b600080604083850312156115dd57600080fd5b823591506115ed6020840161157a565b90509250929050565b6000806040838503121561160957600080fd5b6116128361157a565b946020939093013593505050565b6000806040838503121561163357600080fd5b50508035926020909101359150565b6020808252602a908201527f43616c6c6572206973206e6f742052657761726473446973747269627574696f6040820152691b8818dbdb9d1c9858dd60b21b606082015260800190565b6020808252601f908201527f5265656e7472616e637947756172643a207265656e7472616e742063616c6c00604082015260600190565b60208082526010908201526f14185d5cd8589b194e881c185d5cd95960821b604082015260600190565b6000602082840312156116ff57600080fd5b5051919050565b634e487b7160e01b600052601160045260246000fd5b60008282101561172e5761172e611706565b500390565b600081600019048311821515161561174d5761174d611706565b500290565b60008261176f57634e487b7160e01b600052601260045260246000fd5b500490565b6000821982111561178757611787611706565b500190565b60006020828403121561179e57600080fd5b8151801515811461114757600080fd5b60005b838110156117c95781810151838201526020016117b1565b8381111561132a5750506000910152565b600082516117ec8184602087016117ae565b9190910192915050565b60208152600082518060208401526118158160408501602087016117ae565b601f01601f1916919091016040019291505056fea2646970667358221220dc65e7839622a23b6b930196ca650f5578e08e84483becec8dcd719d502bb71364736f6c634300080b00335374616b696e6752657761726473466163746f72793a3a636c61696d52657761a2646970667358221220a6cbbcda835ef5d5266fcb8c452d84eff8e7554d17256b7c6a82b35ab788f0f864736f6c634300080b0033",
  "immutableReferences": {},
  "source": "// SPDX-License-Identifier: MIT\npragma solidity ^0.8.0;\n\nimport \"@openzeppelin/contracts/access/Ownable.sol\";\nimport \"@openzeppelin/contracts/token/ERC20/utils/SafeERC20.sol\";\nimport \"@openzeppelin/contracts/utils/math/SafeMath.sol\";\n\nimport \"./StakingRewards.sol\";\n\ncontract StakingRewardsFactory is Ownable {\n    using SafeERC20 for IERC20;\n    using SafeMath for uint256;\n\n    /* ========== STATE VARIABLES ========== */\n    address public rewardsToken;\n    uint256 public stakingRewardsGenesis; // genesis unix epoch\n\n    address[] public stakingTokens;\n\n    struct StakingRewardsInfo {\n        address stakingRewards;\n        uint256 rewardAmount;\n        uint256 duration;\n    }\n\n    mapping(address => StakingRewardsInfo)\n        public stakingRewardsInfoByStakingToken;\n\n    /* ========== CONSTRUCTOR ========== */\n    constructor(address _rewardsToken, uint256 _stakingRewardsGenesis)\n        Ownable()\n    {\n        require(\n            _stakingRewardsGenesis >= block.timestamp,\n            \"StakingRewardsFactory::constructor: genesis too soon\"\n        );\n        rewardsToken = _rewardsToken;\n        stakingRewardsGenesis = _stakingRewardsGenesis;\n    }\n\n    /* ========== RESTRICTED FUNCTIONS ========== */\n    function deploy(\n        address _stakingToken,\n        uint256 _rewardAmount,\n        uint256 _rewardsDuration\n    ) public onlyOwner {\n        StakingRewardsInfo storage info = stakingRewardsInfoByStakingToken[\n            _stakingToken\n        ];\n        require(\n            info.stakingRewards == address(0),\n            \"StakingRewardsFactory::deploy: already deployed\"\n        );\n\n        info.stakingRewards = address(\n            new StakingRewards(address(this), rewardsToken, _stakingToken)\n        );\n        info.rewardAmount = _rewardAmount;\n        info.duration = _rewardsDuration;\n        stakingTokens.push(_stakingToken);\n    }\n\n    function update(\n        address _stakingToken,\n        uint256 _rewardAmount,\n        uint256 _rewardsDuration\n    ) public onlyOwner {\n        StakingRewardsInfo storage info = stakingRewardsInfoByStakingToken[\n            _stakingToken\n        ];\n        require(\n            info.stakingRewards != address(0),\n            \"StakingRewardsFactory::deploy: not deployed\"\n        );\n\n        info.stakingRewards = address(\n            new StakingRewards(address(this), rewardsToken, _stakingToken)\n        );\n        info.rewardAmount = _rewardAmount;\n        info.duration = _rewardsDuration;\n        //stakingTokens.push(_stakingToken);\n    }\n\n    function setRewardsDuration(address _stakingToken, uint256 _duration)\n        external\n        onlyOwner\n    {\n        StakingRewards(_stakingToken).setRewardsDuration(_duration);\n    }\n\n    function recoverLostNetworkToken(address _stakingToken) external onlyOwner {\n        StakingRewards(_stakingToken).recoverLostNetworkToken();\n    }\n\n    function recoverLostTokenERC20(\n        address _stakingToken,\n        address _token,\n        uint256 _amount\n    ) external onlyOwner {\n        StakingRewards(_stakingToken).recoverLostTokenERC20(_token, _amount);\n    }\n\n    function pause(address _stakingToken) external onlyOwner {\n        StakingRewards(_stakingToken).pause();\n    }\n\n    function unpause(address _stakingToken) external onlyOwner {\n        StakingRewards(_stakingToken).unpause();\n    }\n\n    /* ========== MODIFIERS ========== */\n    function claimRewardAmounts() public {\n        require(\n            stakingTokens.length > 0,\n            \"StakingRewardsFactory::claimRewardAmounts: called before any deploys\"\n        );\n        for (uint256 i = 0; i < stakingTokens.length; i++) {\n            claimRewardAmount(stakingTokens[i]);\n        }\n    }\n\n    function claimRewardAmount(address _stakingToken) public {\n        require(\n            block.timestamp >= stakingRewardsGenesis,\n            \"StakingRewardsFactory::claimRewardAmount: too soon\"\n        );\n\n        StakingRewardsInfo storage info = stakingRewardsInfoByStakingToken[\n            _stakingToken\n        ];\n        require(\n            info.stakingRewards != address(0),\n            \"StakingRewardsFactory::claimRewardAmount: not deployed\"\n        );\n\n        if (info.rewardAmount > 0 && info.duration > 0) {\n            uint256 rewardAmount = info.rewardAmount;\n            uint256 duration = info.duration;\n\n            info.rewardAmount = 0;\n            info.duration = 0;\n\n            require(\n                // TODO ensure rewardsToken transfer returns bool\n                IERC20(rewardsToken).transfer(\n                    info.stakingRewards,\n                    rewardAmount\n                ),\n                \"StakingRewardsFactory::claimRewardAmount: transfer failed\"\n            );\n            StakingRewards(info.stakingRewards).claimRewardAmount(\n                rewardAmount,\n                duration\n            );\n        }\n    }\n}\n",
  "sourcePath": "/home/owo/Downloads/solidity-test/solidity-test/contracts/StakingRewardsFactory.sol",
  "compiler": {
    "name": "solc",
    "version": "0.8.11+commit.d7f03943.Emscripten.clang"
  },
  "schemaVersion": "3.4.4",
  "updatedAt": "2022-02-09T06:15:00.731Z",
  "networkType": "ethereum",
  "devdoc": {
    "kind": "dev",
    "methods": {
      "owner()": {
        "details": "Returns the address of the current owner."
      },
      "renounceOwnership()": {
        "details": "Leaves the contract without owner. It will not be possible to call `onlyOwner` functions anymore. Can only be called by the current owner. NOTE: Renouncing ownership will leave the contract without an owner, thereby removing any functionality that is only available to the owner."
      },
      "transferOwnership(address)": {
        "details": "Transfers ownership of the contract to a new account (`newOwner`). Can only be called by the current owner."
      }
    },
    "version": 1
  },
  "userdoc": {
    "kind": "user",
    "methods": {},
    "version": 1
  }
}