{
  "contractName": "StakingRewardsFactory",
  "abi": [
    {
      "inputs": [
        {
          "internalType": "address",
          "name": "_rewardsToken",
          "type": "address"
        },
        {
          "internalType": "uint256",
          "name": "_stakingRewardsGenesis",
          "type": "uint256"
        }
      ],
      "stateMutability": "nonpayable",
      "type": "constructor"
    },
    {
      "anonymous": false,
      "inputs": [
        {
          "indexed": true,
          "internalType": "address",
          "name": "previousOwner",
          "type": "address"
        },
        {
          "indexed": true,
          "internalType": "address",
          "name": "newOwner",
          "type": "address"
        }
      ],
      "name": "OwnershipTransferred",
      "type": "event"
    },
    {
      "inputs": [],
      "name": "owner",
      "outputs": [
        {
          "internalType": "address",
          "name": "",
          "type": "address"
        }
      ],
      "stateMutability": "view",
      "type": "function",
      "constant": true
    },
    {
      "inputs": [],
      "name": "renounceOwnership",
      "outputs": [],
      "stateMutability": "nonpayable",
      "type": "function"
    },
    {
      "inputs": [],
      "name": "rewardsToken",
      "outputs": [
        {
          "internalType": "address",
          "name": "",
          "type": "address"
        }
      ],
      "stateMutability": "view",
      "type": "function",
      "constant": true
    },
    {
      "inputs": [],
      "name": "stakingRewardsGenesis",
      "outputs": [
        {
          "internalType": "uint256",
          "name": "",
          "type": "uint256"
        }
      ],
      "stateMutability": "view",
      "type": "function",
      "constant": true
    },
    {
      "inputs": [
        {
          "internalType": "address",
          "name": "",
          "type": "address"
        }
      ],
      "name": "stakingRewardsInfoByStakingToken",
      "outputs": [
        {
          "internalType": "address",
          "name": "stakingRewards",
          "type": "address"
        },
        {
          "internalType": "uint256",
          "name": "rewardAmount",
          "type": "uint256"
        },
        {
          "internalType": "uint256",
          "name": "duration",
          "type": "uint256"
        }
      ],
      "stateMutability": "view",
      "type": "function",
      "constant": true
    },
    {
      "inputs": [
        {
          "internalType": "uint256",
          "name": "",
          "type": "uint256"
        }
      ],
      "name": "stakingTokens",
      "outputs": [
        {
          "internalType": "address",
          "name": "",
          "type": "address"
        }
      ],
      "stateMutability": "view",
      "type": "function",
      "constant": true
    },
    {
      "inputs": [
        {
          "internalType": "address",
          "name": "newOwner",
          "type": "address"
        }
      ],
      "name": "transferOwnership",
      "outputs": [],
      "stateMutability": "nonpayable",
      "type": "function"
    },
    {
      "inputs": [
        {
          "internalType": "address",
          "name": "stakingToken",
          "type": "address"
        },
        {
          "internalType": "uint256",
          "name": "rewardAmount",
          "type": "uint256"
        },
        {
          "internalType": "uint256",
          "name": "rewardsDuration",
          "type": "uint256"
        }
      ],
      "name": "deploy",
      "outputs": [],
      "stateMutability": "nonpayable",
      "type": "function"
    },
    {
      "inputs": [
        {
          "internalType": "address",
          "name": "stakingToken",
          "type": "address"
        },
        {
          "internalType": "uint256",
          "name": "rewardAmount",
          "type": "uint256"
        },
        {
          "internalType": "uint256",
          "name": "rewardsDuration",
          "type": "uint256"
        }
      ],
      "name": "update",
      "outputs": [],
      "stateMutability": "nonpayable",
      "type": "function"
    },
    {
      "inputs": [],
      "name": "claimRewardAmounts",
      "outputs": [],
      "stateMutability": "nonpayable",
      "type": "function"
    },
    {
      "inputs": [
        {
          "internalType": "address",
          "name": "stakingToken",
          "type": "address"
        }
      ],
      "name": "claimRewardAmount",
      "outputs": [],
      "stateMutability": "nonpayable",
      "type": "function"
    },
    {
      "inputs": [
        {
          "internalType": "address",
          "name": "token",
          "type": "address"
        },
        {
          "internalType": "uint256",
          "name": "amount",
          "type": "uint256"
        }
      ],
      "name": "pullExtraTokens",
      "outputs": [],
      "stateMutability": "nonpayable",
      "type": "function"
    }
  ],
  "bytecode": "0x608060405234801561001057600080fd5b5060405161261c38038061261c83398101604081905261002f9161012b565b610038336100db565b428110156100b25760405162461bcd60e51b815260206004820152603460248201527f5374616b696e6752657761726473466163746f72793a3a636f6e73747275637460448201527f6f723a2067656e6573697320746f6f20736f6f6e000000000000000000000000606482015260840160405180910390fd5b600180546001600160a01b0319166001600160a01b039390931692909217909155600255610165565b600080546001600160a01b038381166001600160a01b0319831681178455604051919092169283917f8be0079c531659141344cd1fd0a4f28419497f9722a3daafe3b4186f6b6457e09190a35050565b6000806040838503121561013e57600080fd5b82516001600160a01b038116811461015557600080fd5b6020939093015192949293505050565b6124a8806101746000396000f3fe608060405234801561001057600080fd5b50600436106100b45760003560e01c8063bf44ba6c11610071578063bf44ba6c1461018c578063cc0b713814610194578063cfda5478146101a7578063d09b6d43146101ba578063d1af0c7d146101cd578063f2fde38b146101e057600080fd5b8063344e5e34146100b95780636cf8caf8146100e9578063715018a6146101475780637572719e146101515780638da5cb5b14610164578063a0928c1114610175575b600080fd5b6100cc6100c7366004610bbc565b6101f3565b6040516001600160a01b0390911681526020015b60405180910390f35b6101226100f7366004610bf1565b6004602052600090815260409020805460018201546002909201546001600160a01b03909116919083565b604080516001600160a01b0390941684526020840192909252908201526060016100e0565b61014f61021d565b005b61014f61015f366004610c0c565b61025c565b6000546001600160a01b03166100cc565b61017e60025481565b6040519081526020016100e0565b61014f61029e565b61014f6101a2366004610bf1565b61038b565b61014f6101b5366004610c36565b6105fb565b61014f6101c8366004610c36565b61076f565b6001546100cc906001600160a01b031681565b61014f6101ee366004610bf1565b610828565b6003818154811061020357600080fd5b6000918252602090912001546001600160a01b0316905081565b6000546001600160a01b031633146102505760405162461bcd60e51b815260040161024790610c69565b60405180910390fd5b61025a60006108bc565b565b6000546001600160a01b031633146102865760405162461bcd60e51b815260040161024790610c69565b61029a6001600160a01b038316338361090c565b5050565b6000546001600160a01b031633146102c85760405162461bcd60e51b815260040161024790610c69565b6003546103395760405162461bcd60e51b815260206004820152604460248201819052600080516020612453833981519152908201527f7264416d6f756e74733a2063616c6c6564206265666f726520616e79206465706064820152636c6f797360e01b608482015260a401610247565b60005b600354811015610388576103766003828154811061035c5761035c610c9e565b6000918252602090912001546001600160a01b031661038b565b8061038081610cb4565b91505061033c565b50565b6000546001600160a01b031633146103b55760405162461bcd60e51b815260040161024790610c69565b6002544210156104105760405162461bcd60e51b81526020600482015260326024820152600080516020612453833981519152604482015271393220b6b7bab73a1d103a37b79039b7b7b760711b6064820152608401610247565b6001600160a01b03808216600090815260046020526040902080549091166104875760405162461bcd60e51b815260206004820152603660248201526000805160206124538339815191526044820152751c99105b5bdd5b9d0e881b9bdd0819195c1b1bde595960521b6064820152608401610247565b6000816001015411801561049f575060008160020154115b1561029a57600181810180546002840180546000938490559290559154835460405163a9059cbb60e01b81526001600160a01b0391821660048201526024810185905291169063a9059cbb906044016020604051808303816000875af115801561050d573d6000803e3d6000fd5b505050506040513d601f19601f820116820180604052508101906105319190610cdd565b6105915760405162461bcd60e51b8152602060048201526039602482015260008051602061245383398151915260448201527f7264416d6f756e743a207472616e73666572206661696c6564000000000000006064820152608401610247565b825460405163e5cd8a6f60e01b815260048101849052602481018390526001600160a01b039091169063e5cd8a6f90604401600060405180830381600087803b1580156105dd57600080fd5b505af11580156105f1573d6000803e3d6000fd5b5050505050505050565b6000546001600160a01b031633146106255760405162461bcd60e51b815260040161024790610c69565b6001600160a01b0380841660009081526004602052604090208054909116156106a85760405162461bcd60e51b815260206004820152602f60248201527f5374616b696e6752657761726473466163746f72793a3a6465706c6f793a206160448201526e1b1c9958591e4819195c1b1bde5959608a1b6064820152608401610247565b60015460405130916001600160a01b03169086906106c590610baf565b6001600160a01b03938416815291831660208301529091166040820152606001604051809103906000f080158015610701573d6000803e3d6000fd5b5081546001600160a01b03199081166001600160a01b039283161783556001808401959095556002909201929092556003805493840181556000527fc2575a0e9e593c00f959f8c92f12db2869c3395a3b0502d05e2516446f71f85b90920180549092169216919091179055565b6000546001600160a01b031633146107995760405162461bcd60e51b815260040161024790610c69565b6001600160a01b03808416600090815260046020526040902080549091166108175760405162461bcd60e51b815260206004820152602b60248201527f5374616b696e6752657761726473466163746f72793a3a7570646174653a206e60448201526a1bdd0819195c1b1bde595960aa1b6064820152608401610247565b600181019290925560029091015550565b6000546001600160a01b031633146108525760405162461bcd60e51b815260040161024790610c69565b6001600160a01b0381166108b75760405162461bcd60e51b815260206004820152602660248201527f4f776e61626c653a206e6577206f776e657220697320746865207a65726f206160448201526564647265737360d01b6064820152608401610247565b610388815b600080546001600160a01b038381166001600160a01b0319831681178455604051919092169283917f8be0079c531659141344cd1fd0a4f28419497f9722a3daafe3b4186f6b6457e09190a35050565b604080516001600160a01b038416602482015260448082018490528251808303909101815260649091019091526020810180516001600160e01b031663a9059cbb60e01b17905261095e908490610963565b505050565b60006109b8826040518060400160405280602081526020017f5361666545524332303a206c6f772d6c6576656c2063616c6c206661696c6564815250856001600160a01b0316610a359092919063ffffffff16565b80519091501561095e57808060200190518101906109d69190610cdd565b61095e5760405162461bcd60e51b815260206004820152602a60248201527f5361666545524332303a204552433230206f7065726174696f6e20646964206e6044820152691bdd081cdd58d8d9595960b21b6064820152608401610247565b6060610a448484600085610a4e565b90505b9392505050565b606082471015610aaf5760405162461bcd60e51b815260206004820152602660248201527f416464726573733a20696e73756666696369656e742062616c616e636520666f6044820152651c8818d85b1b60d21b6064820152608401610247565b843b610afd5760405162461bcd60e51b815260206004820152601d60248201527f416464726573733a2063616c6c20746f206e6f6e2d636f6e74726163740000006044820152606401610247565b600080866001600160a01b03168587604051610b199190610d2f565b60006040518083038185875af1925050503d8060008114610b56576040519150601f19603f3d011682016040523d82523d6000602084013e610b5b565b606091505b5091509150610b6b828286610b76565b979650505050505050565b60608315610b85575081610a47565b825115610b955782518084602001fd5b8160405162461bcd60e51b81526004016102479190610d4b565b6116d480610d7f83390190565b600060208284031215610bce57600080fd5b5035919050565b80356001600160a01b0381168114610bec57600080fd5b919050565b600060208284031215610c0357600080fd5b610a4782610bd5565b60008060408385031215610c1f57600080fd5b610c2883610bd5565b946020939093013593505050565b600080600060608486031215610c4b57600080fd5b610c5484610bd5565b95602085013595506040909401359392505050565b6020808252818101527f4f776e61626c653a2063616c6c6572206973206e6f7420746865206f776e6572604082015260600190565b634e487b7160e01b600052603260045260246000fd5b6000600019821415610cd657634e487b7160e01b600052601160045260246000fd5b5060010190565b600060208284031215610cef57600080fd5b81518015158114610a4757600080fd5b60005b83811015610d1a578181015183820152602001610d02565b83811115610d29576000848401525b50505050565b60008251610d41818460208701610cff565b9190910192915050565b6020815260008251806020840152610d6a816040850160208701610cff565b601f01601f1916919091016040019291505056fe60806040526000600555600060065562093a806007553480156200002257600080fd5b50604051620016d4380380620016d4833981016040819052620000459162000109565b6001805562000054336200009a565b600380546001600160a01b039384166001600160a01b03199182161790915560048054928416928216929092179091556000805493909216921691909117905562000153565b600280546001600160a01b038381166001600160a01b0319831681179093556040519116919082907f8be0079c531659141344cd1fd0a4f28419497f9722a3daafe3b4186f6b6457e090600090a35050565b80516001600160a01b03811681146200010457600080fd5b919050565b6000806000606084860312156200011f57600080fd5b6200012a84620000ec565b92506200013a60208501620000ec565b91506200014a60408501620000ec565b90509250925092565b61157180620001636000396000f3fe608060405234801561001057600080fd5b50600436106101d95760003560e01c80638da5cb5b11610104578063df136d65116100a2578063f2fde38b11610071578063f2fde38b146103c8578063f520e7e5146103db578063fa4ea2be146103e4578063fc2b8cc3146103ec57600080fd5b8063df136d6514610390578063e3e6cd1814610399578063e5cd8a6f146103ac578063ebe2b12b146103bf57600080fd5b8063c8f33c91116100de578063c8f33c9114610359578063cc1a378f14610362578063cd3daf9d14610375578063d1af0c7d1461037d57600080fd5b80638da5cb5b1461030c578063a694fc3a1461031d578063bfd837ac1461033057600080fd5b80634bb278f31161017c5780637b0a47ee1161014b5780637b0a47ee146102c857806380faa57d146102d15780638b876347146102d95780638c7283c6146102f957600080fd5b80634bb278f31461027c57806370a0823114610284578063715018a6146102ad57806372f702f3146102b557600080fd5b80631c1f78eb116101b85780631c1f78eb1461022c5780632e1a7d4d146102345780633d18b912146102495780633fc6df6e1461025157600080fd5b80628cc262146101de5780630700037d1461020457806318160ddd14610224575b600080fd5b6101f16101ec3660046112e7565b6103f4565b6040519081526020015b60405180910390f35b6101f16102123660046112e7565b600b6020526000908152604090205481565b600c546101f1565b6007546101f1565b610247610242366004611302565b610472565b005b6102476105d8565b600054610264906001600160a01b031681565b6040516001600160a01b0390911681526020016101fb565b6102476106d4565b6101f16102923660046112e7565b6001600160a01b03166000908152600d602052604090205490565b61024761070c565b600454610264906001600160a01b031681565b6101f160065481565b6101f1610742565b6101f16102e73660046112e7565b600a6020526000908152604090205481565b61024761030736600461131b565b610755565b6002546001600160a01b0316610264565b61024761032b366004611302565b6108f1565b6101f161033e3660046112e7565b6001600160a01b03166000908152600e602052604090205490565b6101f160085481565b610247610370366004611302565b610a25565b6101f1610ae7565b600354610264906001600160a01b031681565b6101f160095481565b6102476103a7366004611347565b610b33565b6102476103ba366004611371565b610b89565b6101f160055481565b6102476103d63660046112e7565b610e1d565b6101f160075481565b610247610eb8565b610247610f1b565b6001600160a01b0381166000908152600b6020908152604080832054600a90925282205461046c919061046690670de0b6b3a764000090610460906104419061043b610ae7565b90610f3c565b6001600160a01b0388166000908152600d602052604090205490610f4f565b90610f5b565b90610f67565b92915050565b6002600154141561049e5760405162461bcd60e51b815260040161049590611393565b60405180910390fd5b6002600155336104ac610ae7565b6009556104b7610742565b6008556001600160a01b038116156104fe576104d2816103f4565b6001600160a01b0382166000908152600b6020908152604080832093909355600954600a909152919020555b600082116105445760405162461bcd60e51b81526020600482015260136024820152724e6f7468696e6720746f20776974686472617760681b6044820152606401610495565b600c546105519083610f3c565b600c55336000908152600d602052604090205461056e9083610f3c565b336000818152600d602052604090209190915560045461059a916001600160a01b039091169084610f73565b60405182815233907f7084f5476618d8e60b11ef0d7d3f06914655adb8793e28ff7f018d4c76d505d5906020015b60405180910390a2505060018055565b600260015414156105fb5760405162461bcd60e51b815260040161049590611393565b600260015533610609610ae7565b600955610614610742565b6008556001600160a01b0381161561065b5761062f816103f4565b6001600160a01b0382166000908152600b6020908152604080832093909355600954600a909152919020555b336000908152600b602052604090205480156106cc57336000818152600b602052604081205560035461069a916001600160a01b039091169083610f73565b60405181815233907fe2403640ba68fed3a2f88b7557551d1993f84b99bb10ff833f0cf8db0c5e0486906020016105c8565b505060018055565b6002546001600160a01b031633146106fe5760405162461bcd60e51b8152600401610495906113ca565b6002546001600160a01b0316ff5b6002546001600160a01b031633146107365760405162461bcd60e51b8152600401610495906113ca565b6107406000610fdb565b565b60006107504260055461102d565b905090565b600260015414156107785760405162461bcd60e51b815260040161049590611393565b600260015580610786610ae7565b600955610791610742565b6008556001600160a01b038116156107d8576107ac816103f4565b6001600160a01b0382166000908152600b6020908152604080832093909355600954600a909152919020555b6001600160a01b0382166000908152600d6020526040902054156108375760405162461bcd60e51b815260206004820152601660248201527520b63932b0b23c9039ba30b5b2b210313c903ab9b2b960511b6044820152606401610495565b600c546108449084610f67565b600c556001600160a01b0382166000908152600d602052604090205461086a9084610f67565b6001600160a01b038084166000908152600d6020908152604080832094909455600e9052918220919091556004546108a59116333086611043565b816001600160a01b03167f9e71bc8eea02a63969f509818f2dafb9254532904319f9dbda79b67bd34a5f3d846040516108e091815260200190565b60405180910390a250506001805550565b600260015414156109145760405162461bcd60e51b815260040161049590611393565b600260015533610922610ae7565b60095561092d610742565b6008556001600160a01b0381161561097457610948816103f4565b6001600160a01b0382166000908152600b6020908152604080832093909355600954600a909152919020555b336000908152600e60205260409020541561098e57600080fd5b600c5461099b9083610f67565b600c55336000908152600d60205260409020546109b89083610f67565b336000818152600d6020908152604080832094909455600e9052918220919091556004546109f3916001600160a01b03909116903085611043565b60405182815233907f9e71bc8eea02a63969f509818f2dafb9254532904319f9dbda79b67bd34a5f3d906020016105c8565b6002546001600160a01b03163314610a4f5760405162461bcd60e51b8152600401610495906113ca565b600554421015610aac5760405162461bcd60e51b815260206004820152602260248201527f4578697374696e67207265776172647320706572696f6420696e636f6d706c65604482015261746560f01b6064820152608401610495565b60078190556040518181527ffeece2f615b2fecca6c26deadea49416a6ba6b52b2cd2613065fd6a787cf12409060200160405180910390a150565b6000600c5460001415610afb575060095490565b610750610b2a600554610460670de0b6b3a7640000610b24600654610b2460085461043b610742565b90610f4f565b60095490610f67565b6002546001600160a01b03163314610b5d5760405162461bcd60e51b8152600401610495906113ca565b610b8530610b736002546001600160a01b031690565b6001600160a01b038516919084611043565b5050565b6000546001600160a01b03163314610bed5760405162461bcd60e51b815260206004820152602160248201527f43616c6c6572206973206e6f742052657761726473446973747269627574696f6044820152603760f91b6064820152608401610495565b6000610bf7610ae7565b600955610c02610742565b6008556001600160a01b03811615610c4957610c1d816103f4565b6001600160a01b0382166000908152600b6020908152604080832093909355600954600a909152919020555b600554610c564284610f67565b1015610ca45760405162461bcd60e51b815260206004820152601d60248201527f43616e6e6f7420726564756365206578697374696e6720706572696f640000006044820152606401610495565b6005544210610cbf57610cb78383610f5b565b600655610cfe565b600554600090610ccf9042610f3c565b90506000610ce860065483610f4f90919063ffffffff16565b9050610cf8846104608784610f67565b60065550505b6003546040516370a0823160e01b81523060048201526000916001600160a01b0316906370a0823190602401602060405180830381865afa158015610d47573d6000803e3d6000fd5b505050506040513d601f19601f82011682018060405250810190610d6b91906113ff565b9050610d778184610f5b565b6006541115610dc85760405162461bcd60e51b815260206004820152601860248201527f50726f76696465642072657761726420746f6f206869676800000000000000006044820152606401610495565b426008819055610dd89084610f67565b60058190556040805186815260208101929092527f6c07ee05dcf262f13abf9d87b846ee789d2f90fe991d495acd7d7fc109ee1f55910160405180910390a150505050565b6002546001600160a01b03163314610e475760405162461bcd60e51b8152600401610495906113ca565b6001600160a01b038116610eac5760405162461bcd60e51b815260206004820152602660248201527f4f776e61626c653a206e6577206f776e657220697320746865207a65726f206160448201526564647265737360d01b6064820152608401610495565b610eb581610fdb565b50565b6002546001600160a01b03163314610ee25760405162461bcd60e51b8152600401610495906113ca565b6002546040516001600160a01b03909116904780156108fc02916000818181858888f19350505050158015610eb5573d6000803e3d6000fd5b336000908152600d6020526040902054610f3490610472565b6107406105d8565b6000610f48828461142e565b9392505050565b6000610f488284611445565b6000610f488284611464565b6000610f488284611486565b6040516001600160a01b038316602482015260448101829052610fd690849063a9059cbb60e01b906064015b60408051601f198184030181529190526020810180516001600160e01b03166001600160e01b031990931692909217909152611081565b505050565b600280546001600160a01b038381166001600160a01b0319831681179093556040519116919082907f8be0079c531659141344cd1fd0a4f28419497f9722a3daafe3b4186f6b6457e090600090a35050565b600081831061103c5781610f48565b5090919050565b6040516001600160a01b038085166024830152831660448201526064810182905261107b9085906323b872dd60e01b90608401610f9f565b50505050565b60006110d6826040518060400160405280602081526020017f5361666545524332303a206c6f772d6c6576656c2063616c6c206661696c6564815250856001600160a01b03166111539092919063ffffffff16565b805190915015610fd657808060200190518101906110f4919061149e565b610fd65760405162461bcd60e51b815260206004820152602a60248201527f5361666545524332303a204552433230206f7065726174696f6e20646964206e6044820152691bdd081cdd58d8d9595960b21b6064820152608401610495565b6060611162848460008561116a565b949350505050565b6060824710156111cb5760405162461bcd60e51b815260206004820152602660248201527f416464726573733a20696e73756666696369656e742062616c616e636520666f6044820152651c8818d85b1b60d21b6064820152608401610495565b843b6112195760405162461bcd60e51b815260206004820152601d60248201527f416464726573733a2063616c6c20746f206e6f6e2d636f6e74726163740000006044820152606401610495565b600080866001600160a01b0316858760405161123591906114ec565b60006040518083038185875af1925050503d8060008114611272576040519150601f19603f3d011682016040523d82523d6000602084013e611277565b606091505b5091509150611287828286611292565b979650505050505050565b606083156112a1575081610f48565b8251156112b15782518084602001fd5b8160405162461bcd60e51b81526004016104959190611508565b80356001600160a01b03811681146112e257600080fd5b919050565b6000602082840312156112f957600080fd5b610f48826112cb565b60006020828403121561131457600080fd5b5035919050565b6000806040838503121561132e57600080fd5b8235915061133e602084016112cb565b90509250929050565b6000806040838503121561135a57600080fd5b611363836112cb565b946020939093013593505050565b6000806040838503121561138457600080fd5b50508035926020909101359150565b6020808252601f908201527f5265656e7472616e637947756172643a207265656e7472616e742063616c6c00604082015260600190565b6020808252818101527f4f776e61626c653a2063616c6c6572206973206e6f7420746865206f776e6572604082015260600190565b60006020828403121561141157600080fd5b5051919050565b634e487b7160e01b600052601160045260246000fd5b60008282101561144057611440611418565b500390565b600081600019048311821515161561145f5761145f611418565b500290565b60008261148157634e487b7160e01b600052601260045260246000fd5b500490565b6000821982111561149957611499611418565b500190565b6000602082840312156114b057600080fd5b81518015158114610f4857600080fd5b60005b838110156114db5781810151838201526020016114c3565b8381111561107b5750506000910152565b600082516114fe8184602087016114c0565b9190910192915050565b60208152600082518060208401526115278160408501602087016114c0565b601f01601f1916919091016040019291505056fea26469706673582212204267ae9ad4c2ee49d3d42f9cb0d8184399fed9dbc5e3e60251eaa42addd0c14b64736f6c634300080b00335374616b696e6752657761726473466163746f72793a3a636c61696d52657761a2646970667358221220beadb363249545dc357fdcb35838a18f50cb0fbcaa7388f0967c3f884ff6b4d664736f6c634300080b0033",
  "immutableReferences": {},
  "source": "// SPDX-License-Identifier: MIT\npragma solidity ^0.8.0;\n\nimport \"@openzeppelin/contracts/access/Ownable.sol\";\nimport \"@openzeppelin/contracts/token/ERC20/utils/SafeERC20.sol\";\nimport \"@openzeppelin/contracts/utils/math/SafeMath.sol\";\n\nimport \"./StakingRewards.sol\";\n\ncontract StakingRewardsFactory is Ownable {\n    using SafeERC20 for IERC20;\n    using SafeMath for uint256;\n\n    address public rewardsToken;\n    uint256 public stakingRewardsGenesis;\n\n    address[] public stakingTokens;\n\n    struct StakingRewardsInfo {\n        address stakingRewards;\n        uint256 rewardAmount;\n        uint256 duration;\n    }\n\n    mapping(address => StakingRewardsInfo)\n        public stakingRewardsInfoByStakingToken;\n\n    constructor(address _rewardsToken, uint256 _stakingRewardsGenesis)\n        Ownable()\n    {\n        require(\n            _stakingRewardsGenesis >= block.timestamp,\n            \"StakingRewardsFactory::constructor: genesis too soon\"\n        );\n\n        rewardsToken = _rewardsToken;\n        stakingRewardsGenesis = _stakingRewardsGenesis;\n    }\n\n    function deploy(\n        address stakingToken,\n        uint256 rewardAmount,\n        uint256 rewardsDuration\n    ) public onlyOwner {\n        StakingRewardsInfo storage info = stakingRewardsInfoByStakingToken[\n            stakingToken\n        ];\n        require(\n            info.stakingRewards == address(0),\n            \"StakingRewardsFactory::deploy: already deployed\"\n        );\n\n        info.stakingRewards = address(\n            new StakingRewards(address(this), rewardsToken, stakingToken)\n        );\n\n        info.rewardAmount = rewardAmount;\n        info.duration = rewardsDuration;\n\n        stakingTokens.push(stakingToken);\n    }\n\n    function update(\n        address stakingToken,\n        uint256 rewardAmount,\n        uint256 rewardsDuration\n    ) public onlyOwner {\n        StakingRewardsInfo storage info = stakingRewardsInfoByStakingToken[\n            stakingToken\n        ];\n        require(\n            info.stakingRewards != address(0),\n            \"StakingRewardsFactory::update: not deployed\"\n        );\n\n        info.rewardAmount = rewardAmount;\n        info.duration = rewardsDuration;\n    }\n\n    function claimRewardAmounts() public onlyOwner {\n        require(\n            stakingTokens.length > 0,\n            \"StakingRewardsFactory::claimRewardAmounts: called before any deploys\"\n        );\n        for (uint256 i = 0; i < stakingTokens.length; i++) {\n            claimRewardAmount(stakingTokens[i]);\n        }\n    }\n\n    function claimRewardAmount(address stakingToken) public onlyOwner {\n        require(\n            block.timestamp >= stakingRewardsGenesis,\n            \"StakingRewardsFactory::claimRewardAmount: too soon\"\n        );\n        StakingRewardsInfo storage info = stakingRewardsInfoByStakingToken[\n            stakingToken\n        ];\n        require(\n            info.stakingRewards != address(0),\n            \"StakingRewardsFactory::claimRewardAmount: not deployed\"\n        );\n\n        if (info.rewardAmount > 0 && info.duration > 0) {\n            uint256 rewardAmount = info.rewardAmount;\n            uint256 duration = info.duration;\n            info.rewardAmount = 0;\n            info.duration = 0;\n\n            require(\n                IERC20(rewardsToken).transfer(\n                    info.stakingRewards,\n                    rewardAmount\n                ),\n                \"StakingRewardsFactory::claimRewardAmount: transfer failed\"\n            );\n            StakingRewards(info.stakingRewards).claimRewardAmount(\n                rewardAmount,\n                duration\n            );\n        }\n    }\n\n    function pullExtraTokens(address token, uint256 amount) external onlyOwner {\n        IERC20(token).safeTransfer(msg.sender, amount);\n    }\n}\n",
  "sourcePath": "/home/owo/Downloads/solidity-test/solidity-test/contracts/StakingRewardsFactory.sol",
  "compiler": {
    "name": "solc",
    "version": "0.8.11+commit.d7f03943.Emscripten.clang"
  },
  "schemaVersion": "3.4.4",
  "updatedAt": "2022-02-06T22:04:35.833Z",
  "networkType": "ethereum",
  "devdoc": {
    "kind": "dev",
    "methods": {
      "owner()": {
        "details": "Returns the address of the current owner."
      },
      "renounceOwnership()": {
        "details": "Leaves the contract without owner. It will not be possible to call `onlyOwner` functions anymore. Can only be called by the current owner. NOTE: Renouncing ownership will leave the contract without an owner, thereby removing any functionality that is only available to the owner."
      },
      "transferOwnership(address)": {
        "details": "Transfers ownership of the contract to a new account (`newOwner`). Can only be called by the current owner."
      }
    },
    "version": 1
  },
  "userdoc": {
    "kind": "user",
    "methods": {},
    "version": 1
  }
}