{
  "contractName": "StakingRewardsFactory",
  "abi": [
    {
      "inputs": [
        {
          "internalType": "address",
          "name": "_rewardsToken",
          "type": "address"
        },
        {
          "internalType": "uint256",
          "name": "_stakingRewardsGenesis",
          "type": "uint256"
        }
      ],
      "stateMutability": "nonpayable",
      "type": "constructor"
    },
    {
      "anonymous": false,
      "inputs": [
        {
          "indexed": true,
          "internalType": "address",
          "name": "previousOwner",
          "type": "address"
        },
        {
          "indexed": true,
          "internalType": "address",
          "name": "newOwner",
          "type": "address"
        }
      ],
      "name": "OwnershipTransferred",
      "type": "event"
    },
    {
      "anonymous": false,
      "inputs": [
        {
          "indexed": false,
          "internalType": "address",
          "name": "account",
          "type": "address"
        }
      ],
      "name": "Paused",
      "type": "event"
    },
    {
      "anonymous": false,
      "inputs": [
        {
          "indexed": false,
          "internalType": "address",
          "name": "account",
          "type": "address"
        }
      ],
      "name": "Unpaused",
      "type": "event"
    },
    {
      "inputs": [],
      "name": "owner",
      "outputs": [
        {
          "internalType": "address",
          "name": "",
          "type": "address"
        }
      ],
      "stateMutability": "view",
      "type": "function"
    },
    {
      "inputs": [],
      "name": "paused",
      "outputs": [
        {
          "internalType": "bool",
          "name": "",
          "type": "bool"
        }
      ],
      "stateMutability": "view",
      "type": "function"
    },
    {
      "inputs": [],
      "name": "renounceOwnership",
      "outputs": [],
      "stateMutability": "nonpayable",
      "type": "function"
    },
    {
      "inputs": [],
      "name": "rewardsToken",
      "outputs": [
        {
          "internalType": "address",
          "name": "",
          "type": "address"
        }
      ],
      "stateMutability": "view",
      "type": "function"
    },
    {
      "inputs": [],
      "name": "stakingRewardsGenesis",
      "outputs": [
        {
          "internalType": "uint256",
          "name": "",
          "type": "uint256"
        }
      ],
      "stateMutability": "view",
      "type": "function"
    },
    {
      "inputs": [
        {
          "internalType": "address",
          "name": "",
          "type": "address"
        }
      ],
      "name": "stakingRewardsInfoByStakingToken",
      "outputs": [
        {
          "internalType": "address",
          "name": "stakingRewards",
          "type": "address"
        },
        {
          "internalType": "uint256",
          "name": "rewardAmount",
          "type": "uint256"
        },
        {
          "internalType": "uint256",
          "name": "duration",
          "type": "uint256"
        }
      ],
      "stateMutability": "view",
      "type": "function"
    },
    {
      "inputs": [
        {
          "internalType": "uint256",
          "name": "",
          "type": "uint256"
        }
      ],
      "name": "stakingTokens",
      "outputs": [
        {
          "internalType": "address",
          "name": "",
          "type": "address"
        }
      ],
      "stateMutability": "view",
      "type": "function"
    },
    {
      "inputs": [
        {
          "internalType": "address",
          "name": "newOwner",
          "type": "address"
        }
      ],
      "name": "transferOwnership",
      "outputs": [],
      "stateMutability": "nonpayable",
      "type": "function"
    },
    {
      "inputs": [
        {
          "internalType": "address",
          "name": "_stakingToken",
          "type": "address"
        },
        {
          "internalType": "uint256",
          "name": "_rewardAmount",
          "type": "uint256"
        },
        {
          "internalType": "uint256",
          "name": "_rewardsDuration",
          "type": "uint256"
        }
      ],
      "name": "deploy",
      "outputs": [],
      "stateMutability": "nonpayable",
      "type": "function"
    },
    {
      "inputs": [
        {
          "internalType": "address",
          "name": "_stakingToken",
          "type": "address"
        },
        {
          "internalType": "uint256",
          "name": "_rewardAmount",
          "type": "uint256"
        },
        {
          "internalType": "uint256",
          "name": "_rewardsDuration",
          "type": "uint256"
        }
      ],
      "name": "update",
      "outputs": [],
      "stateMutability": "nonpayable",
      "type": "function"
    },
    {
      "inputs": [
        {
          "internalType": "address",
          "name": "_stakingToken",
          "type": "address"
        },
        {
          "internalType": "uint256",
          "name": "_duration",
          "type": "uint256"
        }
      ],
      "name": "setRewardsDuration",
      "outputs": [],
      "stateMutability": "nonpayable",
      "type": "function"
    },
    {
      "inputs": [
        {
          "internalType": "address",
          "name": "_stakingToken",
          "type": "address"
        }
      ],
      "name": "recoverLostNetworkTokenFromStakingRewards",
      "outputs": [],
      "stateMutability": "nonpayable",
      "type": "function"
    },
    {
      "inputs": [
        {
          "internalType": "address",
          "name": "_stakingToken",
          "type": "address"
        },
        {
          "internalType": "address",
          "name": "_token",
          "type": "address"
        },
        {
          "internalType": "uint256",
          "name": "_amount",
          "type": "uint256"
        }
      ],
      "name": "recoverLostTokenERC20FromStakingRewards",
      "outputs": [],
      "stateMutability": "nonpayable",
      "type": "function"
    },
    {
      "inputs": [
        {
          "internalType": "address",
          "name": "_stakingToken",
          "type": "address"
        }
      ],
      "name": "pauseStakingRewards",
      "outputs": [],
      "stateMutability": "nonpayable",
      "type": "function"
    },
    {
      "inputs": [
        {
          "internalType": "address",
          "name": "_stakingToken",
          "type": "address"
        }
      ],
      "name": "unpauseStakingRewards",
      "outputs": [],
      "stateMutability": "nonpayable",
      "type": "function"
    },
    {
      "inputs": [],
      "name": "recoverLostNetworkToken",
      "outputs": [],
      "stateMutability": "nonpayable",
      "type": "function"
    },
    {
      "inputs": [
        {
          "internalType": "address",
          "name": "_token",
          "type": "address"
        },
        {
          "internalType": "uint256",
          "name": "_amount",
          "type": "uint256"
        }
      ],
      "name": "recoverLostTokenERC20",
      "outputs": [],
      "stateMutability": "nonpayable",
      "type": "function"
    },
    {
      "inputs": [],
      "name": "pause",
      "outputs": [],
      "stateMutability": "nonpayable",
      "type": "function"
    },
    {
      "inputs": [],
      "name": "unpause",
      "outputs": [],
      "stateMutability": "nonpayable",
      "type": "function"
    },
    {
      "inputs": [],
      "name": "notifyRewardAmounts",
      "outputs": [],
      "stateMutability": "nonpayable",
      "type": "function"
    },
    {
      "inputs": [
        {
          "internalType": "address",
          "name": "_stakingToken",
          "type": "address"
        }
      ],
      "name": "notifyRewardAmount",
      "outputs": [],
      "stateMutability": "nonpayable",
      "type": "function"
    }
  ],
  "bytecode": "0x608060405234801561001057600080fd5b50604051612ffa380380612ffa83398101604081905261002f91610138565b610038336100e8565b6000805460ff60a01b19169055428110156100bf5760405162461bcd60e51b815260206004820152603460248201527f5374616b696e6752657761726473466163746f72793a3a636f6e73747275637460448201527f6f723a2067656e6573697320746f6f20736f6f6e000000000000000000000000606482015260840160405180910390fd5b600180546001600160a01b0319166001600160a01b039390931692909217909155600255610172565b600080546001600160a01b038381166001600160a01b0319831681178455604051919092169283917f8be0079c531659141344cd1fd0a4f28419497f9722a3daafe3b4186f6b6457e09190a35050565b6000806040838503121561014b57600080fd5b82516001600160a01b038116811461016257600080fd5b6020939093015192949293505050565b612e79806101816000396000f3fe60806040523480156200001157600080fd5b5060043610620001515760003560e01c8063a0928c1111620000c7578063d1af0c7d1162000086578063d1af0c7d14620002e9578063dccabe4814620002fd578063e3e6cd181462000314578063ed89200f146200032b578063f2fde38b1462000342578063fa4ea2be146200035957600080fd5b8063a0928c111462000281578063ae741d8d146200029a578063c1ba6a6714620002a4578063cfda547814620002bb578063d09b6d4314620002d257600080fd5b80636cf8caf811620001145780636cf8caf814620001e2578063715018a6146200024457806381e16298146200024e5780638456cb5914620002655780638da5cb5b146200026f57600080fd5b80632378bea61462000156578063344e5e34146200016f5780633c72474914620001a35780633f4ba83a14620001ba5780635c975abb14620001c4575b600080fd5b6200016d6200016736600462001291565b62000363565b005b6200018662000180366004620012be565b620003f9565b6040516001600160a01b0390911681526020015b60405180910390f35b6200016d620001b4366004620012d8565b62000424565b6200016d620004a9565b600054600160a01b900460ff1660405190151581526020016200019a565b6200021e620001f3366004620012d8565b6004602052600090815260409020805460018201546002909201546001600160a01b03909116919083565b604080516001600160a01b0390941684526020840192909252908201526060016200019a565b6200016d620004e2565b6200016d6200025f366004620012d8565b6200051b565b6200016d620007a7565b6000546001600160a01b031662000186565b6200028b60025481565b6040519081526020016200019a565b6200016d620007de565b6200016d620002b5366004620012f6565b620008da565b6200016d620002cc36600462001337565b62000970565b6200016d620002e336600462001337565b62000aec565b60015462000186906001600160a01b031681565b6200016d6200030e366004620012d8565b62000c22565b6200016d6200032536600462001291565b62000c8b565b6200016d6200033c366004620012d8565b62000ce1565b6200016d62000353366004620012d8565b62000d4a565b6200016d62000de9565b6000546001600160a01b03163314620003995760405162461bcd60e51b815260040162000390906200136d565b60405180910390fd5b60405163cc1a378f60e01b8152600481018290526001600160a01b0383169063cc1a378f90602401600060405180830381600087803b158015620003dc57600080fd5b505af1158015620003f1573d6000803e3d6000fd5b505050505050565b600381815481106200040a57600080fd5b6000918252602090912001546001600160a01b0316905081565b6000546001600160a01b03163314620004515760405162461bcd60e51b815260040162000390906200136d565b806001600160a01b0316638456cb596040518163ffffffff1660e01b8152600401600060405180830381600087803b1580156200048d57600080fd5b505af1158015620004a2573d6000803e3d6000fd5b5050505050565b6000546001600160a01b03163314620004d65760405162461bcd60e51b815260040162000390906200136d565b620004e062000e51565b565b6000546001600160a01b031633146200050f5760405162461bcd60e51b815260040162000390906200136d565b620004e0600062000ef0565b600054600160a01b900460ff1615620005485760405162461bcd60e51b81526004016200039090620013a2565b600254421015620005a75760405162461bcd60e51b8152602060048201526033602482015260008051602062002e2483398151915260448201527230b93220b6b7bab73a1d103a37b79039b7b7b760691b606482015260840162000390565b6001600160a01b0380821660009081526004602052604090208054909116620006285760405162461bcd60e51b8152602060048201526037602482015260008051602062002e2483398151915260448201527f617264416d6f756e743a206e6f74206465706c6f796564000000000000000000606482015260840162000390565b6000816001015411801562000641575060008160020154115b15620007a357600181810180546002840180546000938490559290559154835460405163a9059cbb60e01b81526001600160a01b0391821660048201526024810185905291169063a9059cbb906044016020604051808303816000875af1158015620006b1573d6000803e3d6000fd5b505050506040513d601f19601f82011682018060405250810190620006d79190620013cc565b6200073a5760405162461bcd60e51b815260206004820152603a602482015260008051602062002e2483398151915260448201527f617264416d6f756e743a207472616e73666572206661696c6564000000000000606482015260840162000390565b825460405163246132f960e01b815260048101849052602481018390526001600160a01b039091169063246132f990604401600060405180830381600087803b1580156200078757600080fd5b505af11580156200079c573d6000803e3d6000fd5b5050505050505b5050565b6000546001600160a01b03163314620007d45760405162461bcd60e51b815260040162000390906200136d565b620004e062000f40565b600054600160a01b900460ff16156200080b5760405162461bcd60e51b81526004016200039090620013a2565b6003546200087f5760405162461bcd60e51b8152602060048201526045602482015260008051602062002e2483398151915260448201527f617264416d6f756e74733a2063616c6c6564206265666f726520616e79206465606482015264706c6f797360d81b608482015260a40162000390565b60005b600354811015620008d757620008c260038281548110620008a757620008a7620013f0565b6000918252602090912001546001600160a01b03166200051b565b80620008ce8162001406565b91505062000882565b50565b6000546001600160a01b03163314620009075760405162461bcd60e51b815260040162000390906200136d565b604051631c7cd9a360e31b81526001600160a01b0383811660048301526024820183905284169063e3e6cd1890604401600060405180830381600087803b1580156200095257600080fd5b505af115801562000967573d6000803e3d6000fd5b50505050505050565b6000546001600160a01b031633146200099d5760405162461bcd60e51b815260040162000390906200136d565b6001600160a01b03808416600090815260046020526040902080549091161562000a225760405162461bcd60e51b815260206004820152602f60248201527f5374616b696e6752657761726473466163746f72793a3a6465706c6f793a206160448201526e1b1c9958591e4819195c1b1bde5959608a1b606482015260840162000390565b60015460405130916001600160a01b031690869062000a419062001266565b6001600160a01b03938416815291831660208301529091166040820152606001604051809103906000f08015801562000a7e573d6000803e3d6000fd5b5081546001600160a01b03199081166001600160a01b039283161783556001808401959095556002909201929092556003805493840181556000527fc2575a0e9e593c00f959f8c92f12db2869c3395a3b0502d05e2516446f71f85b90920180549092169216919091179055565b6000546001600160a01b0316331462000b195760405162461bcd60e51b815260040162000390906200136d565b6001600160a01b038084166000908152600460205260409020805490911662000b995760405162461bcd60e51b815260206004820152602b60248201527f5374616b696e6752657761726473466163746f72793a3a6465706c6f793a206e60448201526a1bdd0819195c1b1bde595960aa1b606482015260840162000390565b60015460405130916001600160a01b031690869062000bb89062001266565b6001600160a01b03938416815291831660208301529091166040820152606001604051809103906000f08015801562000bf5573d6000803e3d6000fd5b5081546001600160a01b0319166001600160a01b0391909116178155600181019290925560029091015550565b6000546001600160a01b0316331462000c4f5760405162461bcd60e51b815260040162000390906200136d565b806001600160a01b0316633f4ba83a6040518163ffffffff1660e01b8152600401600060405180830381600087803b1580156200048d57600080fd5b6000546001600160a01b0316331462000cb85760405162461bcd60e51b815260040162000390906200136d565b620007a362000ccf6000546001600160a01b031690565b6001600160a01b038416908362000fa9565b6000546001600160a01b0316331462000d0e5760405162461bcd60e51b815260040162000390906200136d565b806001600160a01b031663fa4ea2be6040518163ffffffff1660e01b8152600401600060405180830381600087803b1580156200048d57600080fd5b6000546001600160a01b0316331462000d775760405162461bcd60e51b815260040162000390906200136d565b6001600160a01b03811662000dde5760405162461bcd60e51b815260206004820152602660248201527f4f776e61626c653a206e6577206f776e657220697320746865207a65726f206160448201526564647265737360d01b606482015260840162000390565b620008d78162000ef0565b6000546001600160a01b0316331462000e165760405162461bcd60e51b815260040162000390906200136d565b600080546040516001600160a01b03909116914780156108fc02929091818181858888f19350505050158015620008d7573d6000803e3d6000fd5b600054600160a01b900460ff1662000ea35760405162461bcd60e51b815260206004820152601460248201527314185d5cd8589b194e881b9bdd081c185d5cd95960621b604482015260640162000390565b6000805460ff60a01b191690557f5db9ee0a495bf2e6ff9c91a7834c1ba4fdd244a5e8aa4e537bd38aeae4b073aa335b6040516001600160a01b03909116815260200160405180910390a1565b600080546001600160a01b038381166001600160a01b0319831681178455604051919092169283917f8be0079c531659141344cd1fd0a4f28419497f9722a3daafe3b4186f6b6457e09190a35050565b600054600160a01b900460ff161562000f6d5760405162461bcd60e51b81526004016200039090620013a2565b6000805460ff60a01b1916600160a01b1790557f62e78cea01bee320cd4e420270b5ea74000d11b0c9f74754ebdbfc544b05a25862000ed33390565b604080516001600160a01b038416602482015260448082018490528251808303909101815260649091019091526020810180516001600160e01b031663a9059cbb60e01b17905262000ffd90849062001002565b505050565b600062001059826040518060400160405280602081526020017f5361666545524332303a206c6f772d6c6576656c2063616c6c206661696c6564815250856001600160a01b0316620010db9092919063ffffffff16565b80519091501562000ffd57808060200190518101906200107a9190620013cc565b62000ffd5760405162461bcd60e51b815260206004820152602a60248201527f5361666545524332303a204552433230206f7065726174696f6e20646964206e6044820152691bdd081cdd58d8d9595960b21b606482015260840162000390565b6060620010ec8484600085620010f6565b90505b9392505050565b606082471015620011595760405162461bcd60e51b815260206004820152602660248201527f416464726573733a20696e73756666696369656e742062616c616e636520666f6044820152651c8818d85b1b60d21b606482015260840162000390565b843b620011a95760405162461bcd60e51b815260206004820152601d60248201527f416464726573733a2063616c6c20746f206e6f6e2d636f6e7472616374000000604482015260640162000390565b600080866001600160a01b03168587604051620011c7919062001463565b60006040518083038185875af1925050503d806000811462001206576040519150601f19603f3d011682016040523d82523d6000602084013e6200120b565b606091505b50915091506200121d82828662001228565b979650505050505050565b6060831562001239575081620010ef565b8251156200124a5782518084602001fd5b8160405162461bcd60e51b815260040162000390919062001481565b61196d80620014b783390190565b80356001600160a01b03811681146200128c57600080fd5b919050565b60008060408385031215620012a557600080fd5b620012b08362001274565b946020939093013593505050565b600060208284031215620012d157600080fd5b5035919050565b600060208284031215620012eb57600080fd5b620010ef8262001274565b6000806000606084860312156200130c57600080fd5b620013178462001274565b9250620013276020850162001274565b9150604084013590509250925092565b6000806000606084860312156200134d57600080fd5b620013588462001274565b95602085013595506040909401359392505050565b6020808252818101527f4f776e61626c653a2063616c6c6572206973206e6f7420746865206f776e6572604082015260600190565b60208082526010908201526f14185d5cd8589b194e881c185d5cd95960821b604082015260600190565b600060208284031215620013df57600080fd5b81518015158114620010ef57600080fd5b634e487b7160e01b600052603260045260246000fd5b60006000198214156200142957634e487b7160e01b600052601160045260246000fd5b5060010190565b60005b838110156200144d57818101518382015260200162001433565b838111156200145d576000848401525b50505050565b600082516200147781846020870162001430565b9190910192915050565b6020815260008251806020840152620014a281604085016020870162001430565b601f01601f1916919091016040019291505056fe60806040526206978060045562069780600555600060075560006008553480156200002957600080fd5b506040516200196d3803806200196d8339810160408190526200004c91620000b4565b60008054600180556001600160a01b039485166001600160a81b0319909116179055600280549284166001600160a01b031993841617905560038054919093169116179055620000fe565b80516001600160a01b0381168114620000af57600080fd5b919050565b600080600060608486031215620000ca57600080fd5b620000d58462000097565b9250620000e56020850162000097565b9150620000f56040850162000097565b90509250925092565b61185f806200010e6000396000f3fe608060405234801561001057600080fd5b50600436106101e45760003560e01c806380faa57d1161010f578063cc1a378f116100a2578063e3e6cd1811610071578063e3e6cd18146103e8578063ebe2b12b146103fb578063fa4ea2be14610404578063fc2b8cc31461040c57600080fd5b8063cc1a378f146103b1578063cd3daf9d146103c4578063d1af0c7d146103cc578063df136d65146103df57600080fd5b8063a694fc3a116100de578063a694fc3a14610364578063bfd837ac14610377578063c4e41b22146103a0578063c8f33c91146103a857600080fd5b806380faa57d146103215780638456cb59146103295780638b876347146103315780638c7283c61461035157600080fd5b80633d18b912116101875780635c975abb116101565780635c975abb146102bf57806370a08231146102dc57806372f702f3146103055780637b0a47ee1461031857600080fd5b80633d18b9121461027b5780633f4ba83a146102835780633fc6df6e1461028b578063550066d5146102b657600080fd5b80631c1f78eb116101c35780631c1f78eb14610244578063246132f91461024c5780632e1a7d4d1461025f578063386a95251461027257600080fd5b80628cc262146101e95780630700037d1461020f578063197621431461022f575b600080fd5b6101fc6101f7366004611596565b610414565b6040519081526020015b60405180910390f35b6101fc61021d366004611596565b600b6020526000908152604090205481565b61024261023d366004611596565b610492565b005b6101fc6104e7565b61024261025a3660046115b1565b610505565b61024261026d3660046115d3565b61075d565b6101fc60055481565b610242610943565b610242610a69565b60005461029e906001600160a01b031681565b6040516001600160a01b039091168152602001610206565b6101fc60045481565b600054600160a01b900460ff166040519015158152602001610206565b6101fc6102ea366004611596565b6001600160a01b03166000908152600d602052604090205490565b60035461029e906001600160a01b031681565b6101fc60085481565b6101fc610a9d565b610242610aab565b6101fc61033f366004611596565b600a6020526000908152604090205481565b61024261035f3660046115ec565b610add565b6102426103723660046115d3565b610cfe565b6101fc610385366004611596565b6001600160a01b03166000908152600e602052604090205490565b600c546101fc565b6101fc60095481565b6102426103bf3660046115d3565b610e94565b6101fc610f56565b60025461029e906001600160a01b031681565b6101fc60065481565b6102426103f6366004611618565b610fa2565b6101fc60075481565b61024261102f565b6102426110f0565b6001600160a01b0381166000908152600b6020908152604080832054600a90925282205461048c919061048690670de0b6b3a764000090610480906104619061045b610f56565b9061113b565b6001600160a01b0388166000908152600d60205260409020549061114e565b9061115a565b90611166565b92915050565b6000546001600160a01b031633146104c55760405162461bcd60e51b81526004016104bc90611642565b60405180910390fd5b600080546001600160a01b0319166001600160a01b0392909216919091179055565b600061050060055460085461114e90919063ffffffff16565b905090565b6000546001600160a01b0316331461052f5760405162461bcd60e51b81526004016104bc90611642565b6000610539610f56565b600655610544610a9d565b6009556001600160a01b0381161561058b5761055f81610414565b6001600160a01b0382166000908152600b6020908152604080832093909355600654600a909152919020555b6007546105984284611166565b10156105e65760405162461bcd60e51b815260206004820152601d60248201527f43616e6e6f7420726564756365206578697374696e6720706572696f6400000060448201526064016104bc565b6007544210610601576105f9838361115a565b600855610640565b600754600090610611904261113b565b9050600061062a6008548361114e90919063ffffffff16565b905061063a846104808784611166565b60085550505b6002546040516370a0823160e01b81523060048201526000916001600160a01b0316906370a0823190602401602060405180830381865afa158015610689573d6000803e3d6000fd5b505050506040513d601f19601f820116820180604052508101906106ad919061168c565b90506106b9818461115a565b600854111561070a5760405162461bcd60e51b815260206004820152601860248201527f50726f76696465642072657761726420746f6f2068696768000000000000000060448201526064016104bc565b6107144284611166565b6007819055426009556040805186815260208101929092527f6c07ee05dcf262f13abf9d87b846ee789d2f90fe991d495acd7d7fc109ee1f55910160405180910390a150505050565b600260015414156107805760405162461bcd60e51b81526004016104bc906116a5565b60026001553361078e610f56565b600655610799610a9d565b6009556001600160a01b038116156107e0576107b481610414565b6001600160a01b0382166000908152600b6020908152604080832093909355600654600a909152919020555b600054600160a01b900460ff161561080a5760405162461bcd60e51b81526004016104bc906116dc565b600082116108505760405162461bcd60e51b81526020600482015260136024820152724e6f7468696e6720746f20776974686472617760681b60448201526064016104bc565b336000908152600e60205260409020544210156108af5760405162461bcd60e51b815260206004820152601b60248201527f54696d65206c6f636b206973207374696c6c20696e20706c616365000000000060448201526064016104bc565b600c546108bc908361113b565b600c55336000908152600d60205260409020546108d9908361113b565b336000818152600d6020526040902091909155600354610905916001600160a01b039091169084611172565b60405182815233907f7084f5476618d8e60b11ef0d7d3f06914655adb8793e28ff7f018d4c76d505d5906020015b60405180910390a2505060018055565b600260015414156109665760405162461bcd60e51b81526004016104bc906116a5565b600260015533610974610f56565b60065561097f610a9d565b6009556001600160a01b038116156109c65761099a81610414565b6001600160a01b0382166000908152600b6020908152604080832093909355600654600a909152919020555b600054600160a01b900460ff16156109f05760405162461bcd60e51b81526004016104bc906116dc565b336000908152600b60205260409020548015610a6157336000818152600b6020526040812055600254610a2f916001600160a01b039091169083611172565b60405181815233907fe2403640ba68fed3a2f88b7557551d1993f84b99bb10ff833f0cf8db0c5e048690602001610933565b505060018055565b6000546001600160a01b03163314610a935760405162461bcd60e51b81526004016104bc90611642565b610a9b6111da565b565b600061050042600754611277565b6000546001600160a01b03163314610ad55760405162461bcd60e51b81526004016104bc90611642565b610a9b61128d565b60026001541415610b005760405162461bcd60e51b81526004016104bc906116a5565b600260015580610b0e610f56565b600655610b19610a9d565b6009556001600160a01b03811615610b6057610b3481610414565b6001600160a01b0382166000908152600b6020908152604080832093909355600654600a909152919020555b600054600160a01b900460ff1615610b8a5760405162461bcd60e51b81526004016104bc906116dc565b60008311610bcd5760405162461bcd60e51b815260206004820152601060248201526f4e6f7468696e6720746f207374616b6560801b60448201526064016104bc565b336000908152600e6020526040902054421015610c2c5760405162461bcd60e51b815260206004820152601b60248201527f54696d65206c6f636b206973207374696c6c20696e20706c616365000000000060448201526064016104bc565b600c54610c399084611166565b600c556001600160a01b0382166000908152600d6020526040902054610c5f9084611166565b6001600160a01b0383166000908152600d6020526040902055600454610c859042611166565b6001600160a01b038084166000908152600e6020526040902091909155600354610cb291163330866112f2565b816001600160a01b03167f9e71bc8eea02a63969f509818f2dafb9254532904319f9dbda79b67bd34a5f3d84604051610ced91815260200190565b60405180910390a250506001805550565b60026001541415610d215760405162461bcd60e51b81526004016104bc906116a5565b600260015533610d2f610f56565b600655610d3a610a9d565b6009556001600160a01b03811615610d8157610d5581610414565b6001600160a01b0382166000908152600b6020908152604080832093909355600654600a909152919020555b600054600160a01b900460ff1615610dab5760405162461bcd60e51b81526004016104bc906116dc565b60008211610dee5760405162461bcd60e51b815260206004820152601060248201526f4e6f7468696e6720746f207374616b6560801b60448201526064016104bc565b600c54610dfb9083611166565b600c55336000908152600d6020526040902054610e189083611166565b336000908152600d6020526040902055600454610e359042611166565b336000818152600e6020526040902091909155600354610e62916001600160a01b039091169030856112f2565b60405182815233907f9e71bc8eea02a63969f509818f2dafb9254532904319f9dbda79b67bd34a5f3d90602001610933565b6000546001600160a01b03163314610ebe5760405162461bcd60e51b81526004016104bc90611642565b600754421015610f1b5760405162461bcd60e51b815260206004820152602260248201527f4578697374696e67207265776172647320706572696f6420696e636f6d706c65604482015261746560f01b60648201526084016104bc565b60058190556040518181527f6e7432d67984e274e50e0b01d72417edab660176515e130ce9885fc4f817cec89060200160405180910390a150565b6000600c5460001415610f6a575060065490565b610500610f99600c54610480670de0b6b3a7640000610f93600854610f9360095461045b610a9d565b9061114e565b60065490611166565b6000546001600160a01b03163314610fcc5760405162461bcd60e51b81526004016104bc90611642565b600054610fe6906001600160a01b03848116911683611172565b6000546040518281526001600160a01b03918216918416907ffff3b3844276f57024e0b42afec1a37f75db36511e43819a4f2a63ab7862b6489060200160405180910390a35050565b6000546001600160a01b031633146110595760405162461bcd60e51b81526004016104bc90611642565b6000805460405147926001600160a01b039092169183156108fc02918491818181858888f19350505050158015611094573d6000803e3d6000fd5b506000546040518281526001600160a01b039091169073eeeeeeeeeeeeeeeeeeeeeeeeeeeeeeeeeeeeeeee907ffff3b3844276f57024e0b42afec1a37f75db36511e43819a4f2a63ab7862b6489060200160405180910390a350565b600054600160a01b900460ff161561111a5760405162461bcd60e51b81526004016104bc906116dc565b336000908152600d60205260409020546111339061075d565b610a9b610943565b6000611147828461171c565b9392505050565b60006111478284611733565b60006111478284611752565b60006111478284611774565b6040516001600160a01b0383166024820152604481018290526111d590849063a9059cbb60e01b906064015b60408051601f198184030181529190526020810180516001600160e01b03166001600160e01b031990931692909217909152611330565b505050565b600054600160a01b900460ff1661122a5760405162461bcd60e51b815260206004820152601460248201527314185d5cd8589b194e881b9bdd081c185d5cd95960621b60448201526064016104bc565b6000805460ff60a01b191690557f5db9ee0a495bf2e6ff9c91a7834c1ba4fdd244a5e8aa4e537bd38aeae4b073aa335b6040516001600160a01b03909116815260200160405180910390a1565b60008183106112865781611147565b5090919050565b600054600160a01b900460ff16156112b75760405162461bcd60e51b81526004016104bc906116dc565b6000805460ff60a01b1916600160a01b1790557f62e78cea01bee320cd4e420270b5ea74000d11b0c9f74754ebdbfc544b05a25861125a3390565b6040516001600160a01b038085166024830152831660448201526064810182905261132a9085906323b872dd60e01b9060840161119e565b50505050565b6000611385826040518060400160405280602081526020017f5361666545524332303a206c6f772d6c6576656c2063616c6c206661696c6564815250856001600160a01b03166114029092919063ffffffff16565b8051909150156111d557808060200190518101906113a3919061178c565b6111d55760405162461bcd60e51b815260206004820152602a60248201527f5361666545524332303a204552433230206f7065726174696f6e20646964206e6044820152691bdd081cdd58d8d9595960b21b60648201526084016104bc565b60606114118484600085611419565b949350505050565b60608247101561147a5760405162461bcd60e51b815260206004820152602660248201527f416464726573733a20696e73756666696369656e742062616c616e636520666f6044820152651c8818d85b1b60d21b60648201526084016104bc565b843b6114c85760405162461bcd60e51b815260206004820152601d60248201527f416464726573733a2063616c6c20746f206e6f6e2d636f6e747261637400000060448201526064016104bc565b600080866001600160a01b031685876040516114e491906117da565b60006040518083038185875af1925050503d8060008114611521576040519150601f19603f3d011682016040523d82523d6000602084013e611526565b606091505b5091509150611536828286611541565b979650505050505050565b60608315611550575081611147565b8251156115605782518084602001fd5b8160405162461bcd60e51b81526004016104bc91906117f6565b80356001600160a01b038116811461159157600080fd5b919050565b6000602082840312156115a857600080fd5b6111478261157a565b600080604083850312156115c457600080fd5b50508035926020909101359150565b6000602082840312156115e557600080fd5b5035919050565b600080604083850312156115ff57600080fd5b8235915061160f6020840161157a565b90509250929050565b6000806040838503121561162b57600080fd5b6116348361157a565b946020939093013593505050565b6020808252602a908201527f43616c6c6572206973206e6f742052657761726473446973747269627574696f6040820152691b8818dbdb9d1c9858dd60b21b606082015260800190565b60006020828403121561169e57600080fd5b5051919050565b6020808252601f908201527f5265656e7472616e637947756172643a207265656e7472616e742063616c6c00604082015260600190565b60208082526010908201526f14185d5cd8589b194e881c185d5cd95960821b604082015260600190565b634e487b7160e01b600052601160045260246000fd5b60008282101561172e5761172e611706565b500390565b600081600019048311821515161561174d5761174d611706565b500290565b60008261176f57634e487b7160e01b600052601260045260246000fd5b500490565b6000821982111561178757611787611706565b500190565b60006020828403121561179e57600080fd5b8151801515811461114757600080fd5b60005b838110156117c95781810151838201526020016117b1565b8381111561132a5750506000910152565b600082516117ec8184602087016117ae565b9190910192915050565b60208152600082518060208401526118158160408501602087016117ae565b601f01601f1916919091016040019291505056fea2646970667358221220afac97926dc5c410b7f9352a88cfbaf3f9a6db2f853dc02aa59fcf314a5456ad64736f6c634300080b00335374616b696e6752657761726473466163746f72793a3a6e6f74696679526577a2646970667358221220e23af57dfa285a862afadd0d9eafe9681c797e55cf436a7a8cf8e3101148a74564736f6c634300080b0033",
  "immutableReferences": {},
  "source": "// SPDX-License-Identifier: MIT\npragma solidity ^0.8.0;\n\nimport \"@openzeppelin/contracts/access/Ownable.sol\";\nimport \"@openzeppelin/contracts/security/Pausable.sol\";\nimport \"@openzeppelin/contracts/token/ERC20/utils/SafeERC20.sol\";\nimport \"@openzeppelin/contracts/utils/math/SafeMath.sol\";\n\nimport \"./StakingRewards.sol\";\n\ncontract StakingRewardsFactory is Ownable, Pausable {\n    using SafeERC20 for IERC20;\n    using SafeMath for uint256;\n\n    /* ========== STATE VARIABLES ========== */\n    address public rewardsToken;\n    uint256 public stakingRewardsGenesis; // genesis unix epoch\n\n    address[] public stakingTokens;\n\n    struct StakingRewardsInfo {\n        address stakingRewards;\n        uint256 rewardAmount;\n        uint256 duration;\n    }\n\n    mapping(address => StakingRewardsInfo)\n        public stakingRewardsInfoByStakingToken;\n\n    /* ========== CONSTRUCTOR ========== */\n    constructor(address _rewardsToken, uint256 _stakingRewardsGenesis)\n        Ownable()\n    {\n        require(\n            _stakingRewardsGenesis >= block.timestamp,\n            \"StakingRewardsFactory::constructor: genesis too soon\"\n        );\n        rewardsToken = _rewardsToken;\n        stakingRewardsGenesis = _stakingRewardsGenesis;\n    }\n\n    /* ========== RESTRICTED FUNCTIONS ========== */\n    function deploy(\n        address _stakingToken,\n        uint256 _rewardAmount,\n        uint256 _rewardsDuration\n    ) public onlyOwner {\n        StakingRewardsInfo storage info = stakingRewardsInfoByStakingToken[\n            _stakingToken\n        ];\n        require(\n            info.stakingRewards == address(0),\n            \"StakingRewardsFactory::deploy: already deployed\"\n        );\n\n        info.stakingRewards = address(\n            new StakingRewards(address(this), rewardsToken, _stakingToken)\n        );\n        info.rewardAmount = _rewardAmount;\n        info.duration = _rewardsDuration;\n        stakingTokens.push(_stakingToken);\n    }\n\n    function update(\n        address _stakingToken,\n        uint256 _rewardAmount,\n        uint256 _rewardsDuration\n    ) public onlyOwner {\n        StakingRewardsInfo storage info = stakingRewardsInfoByStakingToken[\n            _stakingToken\n        ];\n        require(\n            info.stakingRewards != address(0),\n            \"StakingRewardsFactory::deploy: not deployed\"\n        );\n\n        info.stakingRewards = address(\n            new StakingRewards(address(this), rewardsToken, _stakingToken)\n        );\n        info.rewardAmount = _rewardAmount;\n        info.duration = _rewardsDuration;\n        //stakingTokens.push(_stakingToken);\n    }\n\n    // ---\n\n    function setRewardsDuration(address _stakingToken, uint256 _duration)\n        external\n        onlyOwner\n    {\n        StakingRewards(_stakingToken).setRewardsDuration(_duration);\n    }\n\n    function recoverLostNetworkTokenFromStakingRewards(address _stakingToken)\n        external\n        onlyOwner\n    {\n        StakingRewards(_stakingToken).recoverLostNetworkToken();\n    }\n\n    function recoverLostTokenERC20FromStakingRewards(\n        address _stakingToken,\n        address _token,\n        uint256 _amount\n    ) external onlyOwner {\n        StakingRewards(_stakingToken).recoverLostTokenERC20(_token, _amount);\n    }\n\n    function pauseStakingRewards(address _stakingToken) external onlyOwner {\n        StakingRewards(_stakingToken).pause();\n    }\n\n    function unpauseStakingRewards(address _stakingToken) external onlyOwner {\n        StakingRewards(_stakingToken).unpause();\n    }\n\n    // ---\n\n    function recoverLostNetworkToken() external onlyOwner {\n        payable(owner()).transfer(address(this).balance);\n    }\n\n    function recoverLostTokenERC20(address _token, uint256 _amount)\n        external\n        onlyOwner\n    {\n        IERC20(_token).safeTransfer(owner(), _amount);\n    }\n\n    function pause() external onlyOwner {\n        _pause();\n    }\n\n    function unpause() external onlyOwner {\n        _unpause();\n    }\n\n    /* ========== MODIFIERS ========== */\n    function notifyRewardAmounts() public whenNotPaused {\n        require(\n            stakingTokens.length > 0,\n            \"StakingRewardsFactory::notifyRewardAmounts: called before any deploys\"\n        );\n        for (uint256 i = 0; i < stakingTokens.length; i++) {\n            notifyRewardAmount(stakingTokens[i]);\n        }\n    }\n\n    function notifyRewardAmount(address _stakingToken) public whenNotPaused {\n        require(\n            block.timestamp >= stakingRewardsGenesis,\n            \"StakingRewardsFactory::notifyRewardAmount: too soon\"\n        );\n\n        StakingRewardsInfo storage info = stakingRewardsInfoByStakingToken[\n            _stakingToken\n        ];\n        require(\n            info.stakingRewards != address(0),\n            \"StakingRewardsFactory::notifyRewardAmount: not deployed\"\n        );\n\n        if (info.rewardAmount > 0 && info.duration > 0) {\n            uint256 rewardAmount = info.rewardAmount;\n            uint256 duration = info.duration;\n\n            info.rewardAmount = 0;\n            info.duration = 0;\n\n            require(\n                // TODO ensure rewardsToken transfer returns bool\n                IERC20(rewardsToken).transfer(\n                    info.stakingRewards,\n                    rewardAmount\n                ),\n                \"StakingRewardsFactory::notifyRewardAmount: transfer failed\"\n            );\n            StakingRewards(info.stakingRewards).notifyRewardAmount(\n                rewardAmount,\n                duration\n            );\n        }\n    }\n}\n",
  "sourcePath": "/home/owo/Downloads/solidity-test/solidity-test/contracts/StakingRewardsFactory.sol",
  "compiler": {
    "name": "solc",
    "version": "0.8.11+commit.d7f03943.Emscripten.clang"
  },
  "schemaVersion": "3.4.4",
  "updatedAt": "2022-02-09T08:51:07.510Z",
  "devdoc": {
    "kind": "dev",
    "methods": {
      "owner()": {
        "details": "Returns the address of the current owner."
      },
      "paused()": {
        "details": "Returns true if the contract is paused, and false otherwise."
      },
      "renounceOwnership()": {
        "details": "Leaves the contract without owner. It will not be possible to call `onlyOwner` functions anymore. Can only be called by the current owner. NOTE: Renouncing ownership will leave the contract without an owner, thereby removing any functionality that is only available to the owner."
      },
      "transferOwnership(address)": {
        "details": "Transfers ownership of the contract to a new account (`newOwner`). Can only be called by the current owner."
      }
    },
    "version": 1
  },
  "userdoc": {
    "kind": "user",
    "methods": {},
    "version": 1
  }
}